:020000040800F2
:10000000181C002055E20008B9BD000897BF000881
:1000100099BF00089BBF00089DBF000800000000BA
:100020000000000000000000000000009FBF00086A
:10003000A1BF000800000000A3BF0008A5BF000882
:100040009DE20008A1E20008A5E20008A9BF00089F
:10005000ADE20008B1E20008B5E20008B9E200082C
:10006000BDE2000805C00008C5E20008C9E20008BA
:10007000CDE20008D1E20008D5E20008D9E200088C
:10008000DDE20008E1E20008E5E2000819C000082E
:100090001DC00008F1E20008F5E2000821C00008D8
:1000A000FDE2000887C0000805E3000809E3000836
:1000B0000DE3000811E3000815E3000819E3000848
:1000C0001DE3000821E3000825E3000829E30008F8
:1000D00039C1000831E3000835E3000851C10008C8
:1000E000F1C1000809C2000845E3000849E300081F
:1000F0004DE3000851E3000855E3000859E3000808
:100100005DE300082DC2000865E3000869E300080C
:100110006DE3000871E3000875E3000879E3000867
:100120007DE3000881E3000885E3000889E3000817
:10013000DFF8A80A00F1C4010162427800EB8202F4
:10014000116100F1240181607047F8B5002600F0CC
:100150000DFC4FF6FF75284601F0FDFF284602F022
:100160002BF8DFF8784A206A01F0CAFA18272846E7
:1001700001F0F9FF00F009FA07E031014068095881
:10018000B8B202F0A2F8761C1837206A017A8E42C3
:10019000F3D34FF4FC6001F0E6FF284601F0DBFFEB
:1001A00000F04EF81822504380B2BDE8F44002F04F
:1001B0008CB810B5DFF8244AA068E060C16879B156
:1001C00000212170C06820624068A060FFF7BDFF79
:1001D0006078401C6070C0B204EB8000216A01614D
:1001E000E0684068BDE81040004770B500F040F896
:1001F00000F0CBF900F02DF8207808B9206A007AD9
:10020000401E0BE070B500F033F800F0BEF900F0CE
:1002100020F800F0B4F9ACBF0020401C20704FF46F
:10022000FC6001F0A0FF284601F095FF00F008F8FF
:10023000704300F0F9FC607800192178017170BDFD
:100240002078216A496801EB0011A1600968401C0F
:100250007047DFF888492078216A496801EB00116E
:10026000A16018260968401C704380B202F02DB8C6
:100270004FF6FF75284601F076BF10B5DFF85C49F0
:10028000A06880688047607808B901206070607855
:1002900004EB8001C96821624968A160011900224C
:1002A0000A712270401E6070C0B200281CBFBDE8F9
:1002B0001040FFF74ABFBDE810406CE080B5032056
:1002C00002F0D9F930B9032002F0D5F90028FAD0AC
:1002D000022002BD042002F0CEF930B9042002F061
:1002E000CAF90028FAD0032002BD052002F0C3F9A4
:1002F00030B9052002F0BFF90028FAD0042002BD71
:10030000062002F0B8F930B9062002F0B4F900284E
:10031000FAD0052002BD072002F0ADF930B9072060
:1003200002F0A9F90028FAD0012002BD022002F053
:10033000A2F930B9022002F09EF90028FAD0062076
:1003400002BD002002BD70472DE9F0470024622560
:100350004FF4917847460326DFF8349D4FF0040AA6
:1003600000F05AFC40234022B9B2A8B201F0CFFFFE
:1003700000F03AFB59F8240000F0FBFA413F641CFE
:100380000A2C06D0BAF1010AEAD141354746761E59
:10039000E4D1BDE8F0872DE9F0418CB0002700A83A
:1003A0000FF28811302202F059FA00F043FCFFF7F7
:1003B00085FF0028FBD1FFF7BBFEDFF82048277040
:1003C0004FF6FF7800F033FC00F0D0FA00F035FC77
:1003D00001F0D1FE01F093F9404601F0C4FE00F0B7
:1003E000D4F8FFF7B1FF00F017FC01F0E8FF00AE12
:1003F000412340227188BDF8000002F030F84FF42C
:100400000051DFF8940E02F011FB0028F7D0FFF73F
:1004100055FF00A901EB870504282DD100F00DFC44
:1004200000F09CF8042F04D208370A2F02D30927C2
:1004300000E03F1F00F0A9F800F097F800F096FAEE
:1004400000F0FBFB2078042805D20830C0B20A284F
:1004500002D3092000E0001F20702078216A49683B
:1004600001EB0010A06001F086FE01F048F9607811
:10047000001921780171CAE705281AD100F0DDFBC7
:1004800000F06CF8082F28BF083F03D23F1D0A2F49
:1004900028BF092700F079F800F067F800F066FA45
:1004A00000F0CBFB2078082828BF0838D4D2001DE4
:1004B000CCE7032817D100F0C0FB00F04FF8002F65
:1004C0000CBF09277F1E00F060F800F04EF800F026
:1004D0004DFA00F0B2FB2078002803BF206A007AB2
:1004E000401E401EB8E7022815D100F0A6FB00F020
:1004F00035F8092F0CBF00277F1C00F046F800F0EC
:1005000034F800F033FA00F098FB00F038F8ACBF94
:100510000020401CA0E70128ADD1FFF74AFE0120D2
:1005200002F088FB0CB0BDE8F0810000220022013F
:100530002200E1002200A00022005F0063002201EF
:100540006300E1006300A00063005F00A4002201DB
:10055000A400E100A400A000A4005F004123402209
:10056000698836F8270001F07ABF4123402200A8AD
:1005700000EB8700418836F8270001F070BF207833
:10058000216A097A491E884270471F2001F0E3BDA5
:100590002DE9F04F85B0DFF8BC4D2068049060680D
:1005A0000390DFF8B45D2868029068680190DFF876
:1005B000AC6D306800907768DFF8DC8CD8F800907C
:1005C000D8F804A04FF6FF7001F0CDFDFFF7DDFF76
:1005D00040F23F1B4FF4A073F022594600F0C7FED3
:1005E000DFF87C0D00F0C5F9642002F06CFB4FF4DD
:1005F000A073F022594600F0BAFEDFF8980E00F022
:10060000B8F9642002F05FFB0498206003986060F2
:100610000298286001986860009830607760C8F898
:100620000090C8F804A001214FF4807005B0BDE827
:10063000F04F02F07CBD10B500F0FCFAFFF73EFE73
:100640000028FBD100F0E8FA00F08CFEDFF8480E3D
:1006500000F08FF9FFF732FE0028FBD1FFF72EFEE6
:100660000028FBD000F0D8FA00F080F901F04CF837
:1006700001F081FD0FF29C0101F043F801F07BFDD8
:100680000FF2A80101F026F801F075FD0FF2B40198
:1006900001F030F801F06FFD0FF2C00100F0B8FA80
:1006A00000F0C2FA01F067FD0FF2C801C0888004B3
:1006B00001F022F801F05FFD0FF2D00100F0B1FA75
:1006C00001F059FD0FF2DC0100F0D7FD00F0ACFAAB
:1006D00001F051FD0FF2E40100F0CBFD00F0A4FAAF
:1006E00001F049FD0FF2EC01C088C00401F004F8EC
:1006F00001F041FD0FF2F40100F0B7FD00F094FAB3
:1007000000F072F9FFF7DAFD0028FBD000F084FA60
:10071000CEE0000055502C20444F574E2C2052491B
:1007200047485420616E6420000000004C45465448
:1007300020707573682D627574746F6E732020203D
:1007400000000000706572666F726D2063697263ED
:10075000756C617220202020000000006E617669B7
:10076000676174696F6E20696E207468652020204F
:10077000000000006D61696E206D656E752C206350
:10078000757272656E742020000000006D656E75D4
:10079000206974656D732E2053454C202020202045
:1007A00000000000707573682D627574746F6E20A0
:1007B00073656C65637473200000000074686520C5
:1007C00063757272656E74206974656D2E20555064
:1007D00000000000616E6420444F574E2070657227
:1007E000666F726D20202020000000007665727414
:1007F0006963616C206E617669676174696F6E2EE2
:100800000000000010B500F04FFE00F013FAFFF7F3
:1008100055FD0028FBD100F0A9F800F077FF01F0AA
:10082000AAFC002001F0ABFC01F0A5FC0FF2940142
:1008300000F050FF01F09FFC0FF2A00100F05AFF02
:1008400001F099FC0FF2AC0100F0E2F900F0ECF9D4
:1008500001F091FCC0888004000C01F090FC01F0D4
:100860008AFC0FF2A80100F0DCF901F084FC0FF221
:10087000B40100F002FD00F0D7F901F07CFC0FF2AA
:10088000BC0100F0F6FC00F0CFF901F074FCC08868
:10089000C004000C01F073FC01F06DFC0FF2B40118
:1008A00000F0E3FC00F0C0F9FFF708FD0028FBD0E2
:1008B00000F0FCFDFFF749FC0120BDE8104002F00C
:1008C000B9B9000020202053544D33323130452D2A
:1008D0004556414C202020200000000020202044CC
:1008E000656D6F6E7374726174696F6E2020202065
:1008F0000000000020202056657273696F6E203260
:100900002E312E3020202020000000004D434420B6
:100910004170706C69636174696F6E205465616DBC
:1009200000000000202020434F50595249474854AE
:100930002032303133202020000000002053544D5D
:100940006963726F656C656374726F6E696373203F
:100950000000000020207777772E73742E636F6D70
:100960002F73746D33322020000000001F2001F02F
:10097000FABB2DE9F14F84B0DFF8D8492068039025
:1009800060680290DFF8D05928680190686800908C
:10099000DFF8C8693768D6F80480DFF8FC98D9F822
:1009A00000A0D9F804B000F037F902F03DFCDFF800
:1009B000EC0A02F0B8FC02F0C9FC049801F06DFDED
:1009C00000F012F803982060029860600198286097
:1009D000009868603760C6F80480C9F800A0C9F8BC
:1009E00004B005B0BDE8F08F00214FF4807002F034
:1009F0009EBB2DE9F041FFF761FC0028FBD1FFF71A
:100A0000F3FF02F0B7FC4FF6FF7802F00FFD01286C
:100A100040F0C68000F00EF900F0FEF800F007F993
:100A200040234022BE21962001F071FCDFF8080E21
:100A3000FFF79FFF00F0F0F801F0C1FC4FF47840A1
:100A400001F091FB00F0F9F801F095FB0FF2901125
:100A500000F050FEFFF78AFF4FF4FC6001F07BFBD3
:100A6000FFF7C2FFDFF8D45DFFF728FC0028FBD1B9
:100A700002F080FC02F013FD8000286300F0CCF847
:100A8000286B05F20502B0F5806F03D22B20687148
:100A9000107605E02D2169711176C0F5006028639C
:100AA000296B4FF47A7701F007007843C008642679
:100AB000B0FBF6F303F13004547106FB130C0A2368
:100AC000BCFBF3FE0EF13004947103FB1ECC0CF161
:100AD0003004D471C9082963B1FBF6FC0CF1300471
:100AE000547006FB1C1CBCFBF3FE0EF1300494702A
:100AF00003FB1ECC0CF13004D47007FB010000EBAB
:100B0000C0000521B0FBF1F000F5FA40DFF8101E3F
:100B1000B0FBF1FC0CF13004547601FB1C0142F2F5
:100B20001070B1FBF0FC0CF13004947600FB1C104B
:100B3000B0FBF7FC0CF13001D17607FB1C0CBCFBC1
:100B4000F6F707F13000507706FB17C6B6FBF3F750
:100B500007F13000907703FB17633033D37700261B
:100B600001F009FB40F23F11A1EB0617725DB9B22B
:100B700000F07FFB80B201F093FB01F0FCFA7119E9
:100B80000A7EB9B2C088C004000C01F089FB761C53
:100B9000142EE5D3FFF728FFFFF790FBA0B967E716
:100BA00000F045F801F0E7FA0FF24C0100F0A2FD69
:100BB00001F0E1FA0FF6243100F02AF800F034F8E1
:100BC000FFF77CFB0028FBD000F026F800F02FF8A0
:100BD000FFF7BBFA012000F060BD0000F00100202B
:100BE000202020202054656D7065726174757265D7
:100BF0002020202000000000204E6F205453454E3E
:100C0000534F522050726573656E742000000000CF
:100C1000C08800EB4000704701214FF4807002F063
:100C200086BAC08800EB800080B201F04EBB40461F
:100C300001F0C2BA002001F0FDBF404601F08BBABE
:100C40002DE9F04FB1B005208DF808004FF6FF797F
:100C5000484601F0B1FAFFF7EDFFFFF72FFB002840
:100C6000FBD1642111A802F0FBFC142105A802F0BD
:100C7000F7FCDFF8B05CA88B4FF2FF710840A88347
:100C800028884FF6FB710840288000214FF48040EF
:100C900002F05FFA0121912002F052FA00F0D2FA3C
:100CA00003208DF8060000F0EFFB00F0B8FA80207A
:100CB00000F0E7FA402000F0E4FADFF86C0C4FF4A3
:100CC0000001016017208DF8000000208DF8010060
:100CD0008DF8020001208DF8030000A802F0CDFC81
:100CE00027208DF8000001208DF8010000A802F0F7
:100CF000C4FC0721022001F0A9FE802002F043FD80
:100D000000208DF8100008208DF81100802003903D
:100D100001208DF8120003A802F0F0FCDFF80C6C43
:100D200001207060FFF722FE484601F014FA01F03E
:100D300022FA0FF2603100F0CDFC01F01CFA0FF244
:100D40006C3100F0D7FC01E0012806D0FFF7B6FABD
:100D500031680029F8D0012809D101F00CFA00F01F
:100D6000ADFC01F008FA0FF25C31C08834E001F00C
:100D700002FA0FF2683100F0ADFC01F0FCF90FF25D
:100D8000743100F0B7FC00208DF808000A908DF84F
:100D90002C00FF242AAA0AA902A802F0FDFC641E66
:100DA0009DF80800042802D0002CF3D101E0002CAB
:100DB00033D101F0E0F90FF2543100F08BFC01F077
:100DC000DAF90FF2603100F095FC01F0D4F90FF27E
:100DD0006C31FFF71DFF80B201F077FA01F0CBF91B
:100DE0000FF2B831C088800400F086FC01F0C3F92E
:100DF0000FF6B001FFF715FFFFF760FA0028FBD0F0
:100E0000DFF82C0B02F06AFF00F048FA00F04EFA0F
:100E10000721062001F01AFE23E101F0ACF90FF2E0
:100E2000343100F057FC01F0A6F90FF2403100F028
:100E300061FC01F0A0F90FF24C31FFF7E9FEFFF77A
:100E4000F3FE01F098F90FF25431FFF7EAFE01F0DA
:100E500092F90FF2603100F010FAFFF7E5FEFFF7AC
:100E60002DFA0028FBD0484601F0A6F9FFF77EFDD9
:100E7000484601F070F901F07EF90FF2503100F0B0
:100E800040FC00F01CFA00F014FB01F074F900F0D3
:100E900015FCDFF8A0BA9BF801309BF800200FF298
:100EA000443105A803F048F801F065F905A9C088A8
:100EB00001F00BFA0FF2443105A803F03DF801F000
:100EC0005AF905A9C0884004000C01F0FEF900F0B1
:100ED000F6F9FFF75AFB002414E0B4FBF8F058448D
:100EE0008778384600F00EFD11A9605411A804EB74
:100EF000000A384600F0FEFC8AF8010020208AF83B
:100F00000200E41C4FF0030800F0A9F9E5D301F05A
:100F100032F911A9FFF77CFE00F0C5F99BF82A0011
:100F2000082813D3152405E000F07EF900F091F9AC
:100F300000F070F900F093F9F6D301F01CF90DF10F
:100F40005901C0888004000C01F0BFF99BF82A0009
:100F50000F2813D32A2405E000F066F900F079F990
:100F600000F058F900F07BF9F6D301F004F90DF127
:100F70006E01C08800EB800000F095F900F09FF949
:100F800000F097FA0FF6E01105A802F0D5FF01F086
:100F9000F2F805A900F071F900F085F900F08FF979
:100FA000FFF7F3FA002405E000F045F900F051F9ED
:100FB00000F030F99BF82B0000F053F9F4D301F066
:100FC000DAF811A900F055F900F06DF99BF82B0043
:100FD000082815D3152405E000F02DF900F039F9A3
:100FE00000F018F99BF82B0000F03BF9F4D301F066
:100FF000C2F80DF15901C088C004000C01F065F978
:101000009BF82B000F2814D32A2405E000F013F9D5
:1010100000F01FF900F0FEF89BF82B0000F021F91A
:10102000F4D301F0A8F80DF16E0100F01EF900F004
:101030003AF9FFF743F90028FBD0DFF8F40802F093
:101040004DFE00F02BF900F031F90721062001F0E8
:10105000FDFC00F0F7F88DF8068000F015FA00F0BE
:10106000DEF8002030607060A88B40F40060A88338
:1010700001214FF4804002F06CF8484601F09CF8E2
:10108000FFF763F8012001F0D5FD31B0BDE8F08F26
:10109000AC1A000820506C6561736520496E736559
:1010A0007274204361726420000000005072657306
:1010B000732053454C20746F20657869742E20206E
:1010C000000000002043617264206E6F6E20696E24
:1010D00073657274656420200000000020202043A6
:1010E00061726420496E73657274656420202020EB
:1010F000000000002020204465636F64696E672053
:101100004154522E2E2E2020000000004E6F6E20E3
:10111000737570706F72746564204361726420200F
:10112000000000004F6E6C792049534F373831363C
:101130002D332054203D2030000000006361726494
:10114000732061726520737570706F727465642EA0
:1011500000000000536D6172742063617264204965
:10116000534F373831362D3300000000636F6D70F8
:10117000617469626C652E202020202020202020B0
:101180000000000050726F746F636F6C2054203D3C
:10119000203020202020202000000000507573689F
:1011A000204A6F79537469636B20746F202020206C
:1011B00000000000636F6E74696E75652E2020203C
:1011C000202020202020202000000000202020209F
:1011D0004465636F646564204154522020202020C0
:1011E000000000005453203D20307825782C2054F6
:1011F00030203D203078257800000000536574755C
:10120000702043686172616374657273203A2020B4
:101210000000000078702020B870E41C7047402166
:10122000DFF8140701F009BCB4FBF8F0584490F85B
:1012300002A0504666E3B4FBF8F0584490F816A0BC
:1012400050465FE34020ADF8040010208DF8070001
:10125000704711A9605411A8271850464AE39BF81B
:101260002A0000EB400084427047C08800EBC000B9
:101270007047C088C0EBC0007047C088062250434A
:101280007047ADF8040004208DF8070001A9DFF8CD
:10129000A80601F06DBB00000020014000214FF4C2
:1012A000802001F056BF80B201F00FB827208DF8E2
:1012B000000000208DF8030000A802F0DEB94846C7
:1012C00000F051BF1CB500200090019001F0B2FC6D
:1012D000FEF7F4FF0028FBD100F044F800F0E0F83E
:1012E000DFF8584654F82000FFF743FB15E000F004
:1012F000D7F854F82000FFF73CFB062001F0E3FC90
:101300000098322804BF00200090FEF7D7FF01901C
:101310000198012804BF3220009000983228E6D3BB
:10132000FFF77AFC002000F01EFF00F0EDF900F05E
:10133000BDF800F020FF00F0CBF9FEF7BFFF00285A
:10134000FBD000F0B3F8FEF700FF0120BDE8164027
:1013500001F070BC0014014000180140001C014065
:10136000FAFBF7644FF4A073F02240F23F11EF2034
:1013700000F0CDBF3EB50020009002901020ADF8E7
:10138000040000208DF8070000F07EF8FFF752FC03
:10139000FEF794FF0028FBD101214FF4007001F00B
:1013A000CFFE00F081FA00F07FF800F082F800F044
:1013B000E2FE0FF2CC51C088800400F09DF900F0ED
:1013C000DAFE0FF2D451FFF72CFC00F0D4FE0FF23E
:1013D000E051FFF752FFFFF727FC00F0CCFE0FF2C1
:1013E000E851FFF746FFFFF71FFC00F0C4FE0FF2C5
:1013F000F051C088C00400F07FF9FEF75FFF0128BC
:10140000FBD1FFF7AFFF00F04BF80FF2CC6555F8BA
:101410002000FFF7AEFA1BE000F042F855F820007C
:10142000FFF7A7FADFF8180502F00FFE0A2190FB7C
:10143000F1F001F048FC00980E2804BF0020009055
:10144000FEF73CFF02900298012804BF0E20009096
:1014500000980E28E0D3FFF7DFFB002000F083FEAA
:1014600000F054F900F022F800F085FE00F030F9A9
:10147000FEF724FF0028FBD000F018F8FEF765FE09
:10148000012001F0D7FB37BD01A9DFF8AC0401F062
:101490006FBA00005E28D7643C54FA6480070020CD
:1014A0000098411C009170474FF6FF74204600F0F1
:1014B00083BE4FF4784000F04EBE2DE9F04184B079
:1014C000002000900190029001F0B4FBFEF7F6FEC0
:1014D0000028FBD1FFF7E8FFFFF748FA00F016F904
:1014E00003F003F80290029801281CBF029802281A
:1014F00005D1029803F0F5FCFFF78EFBC7E0FFF77C
:101500008BFB00F038FE002000F039FE00F033FEC7
:101510000FF2E44100F0DEF800F02DFE00F0CEF80E
:1015200000F029FEFFF774FB80B200F028FE00F007
:1015300022FE0FF2DC41C088800400F0DDF800F0EC
:101540001AFE0FF2E441FFF76CFB00F014FE0FF2FD
:10155000F041FFF792FEFFF767FB00F00CFE0FF281
:10156000F841FFF786FEFFF75FFB00F004FE0FF285
:101570000051C088C00400F0BFF800F0FCFD0FF27D
:101580002411FFF772FEFFF74FFBFEF797FE0128CD
:10159000FBD1FEF793FE0028FBD10FF2745500F04B
:1015A00092F8DFF8A013012002F09EFE0FF2985689
:1015B0000FF22458DFF890730EE0009808B901206C
:1015C00000900098401E009002F0F6FD00F07BF8BD
:1015D00002F04AFF02F0E4FD00980E2837D202F034
:1015E000EBFDFFF719FBFFF7BDFE009858F8200050
:1015F000FFF7BFF902F038FF02F0D2FD0020B8601B
:10160000009856F8200001F072FB01900198032821
:10161000D3D00198022807D100980D2804BF0F20CD
:1016200000900098401CCEE70198012804D102F0F8
:10163000DDFD0F200090CFE701980028CCD1009865
:10164000401C009055F8200002F012FFC4E73868F3
:101650004008400038600020B86002F0C7FDFFF786
:10166000DBFA002000F0A8FD002000F07CFD00F077
:101670004DF800F080FD0FF2104100F042F800F04C
:101680007AFD00F025F8FEF719FE0028FBD0FFF7E1
:101690000DFFFEF75AFD012004B0BDE8F04101F056
:1016A000C9BA0000657869742E20202020202020EF
:1016B000202020202020202000000000C08840049E
:1016C000000C00F05CBD009855F8200002F0D0BE80
:1016D0000FF20801C08800F0F8BD00004578697479
:1016E0003A202050757368204A6F79537469636B90
:1016F00000000000C0884004000C00F0E6BDA068B7
:101700000168002000F0E1BD4FF6FF74204600F0B4
:1017100022BD2DE9F04F8DB0002409A80FF28031D1
:101720002CC92CC0894D2868089068680790884E9D
:101730003068069070680590864F38680490786825
:101740000390DFF81482D8F800000290D8F80490D3
:10175000FFF762FA01F068FDDFF800A2504601F0E1
:10176000E2FD01F0F3FD00940DF1000BABF8044035
:1017700006220FF2643000F083F8FFF74DFA00F014
:101780007AF800283AD100F068F80E2CF0D306223F
:10179000734900F077F8FFF73FFA00F06CF8002883
:1017A0002CD100F04DF806226E4900F06BF8FFF7DF
:1017B00033FA00F060F8002820D100F041F800244E
:1017C00006220FF2E82000F05BF8FFF725FA052269
:1017D0000AF1100100F052F880B900F03EF8082C30
:1017E000EED30024062209A800F04AF8FFF714FA05
:1017F00005220AF1180100F041F808B1012017E0B4
:1018000000F02BF8032CEDD3089828600798686047
:101810000698306005987060049838600398786086
:101820000298C8F80000C8F80490FFF7F5F9002006
:101830000DB0BDE8F08F00004C8EFD64080500205F
:101840008DF800008BF801008BF802008BF8030084
:101850008BF804008BF8050070478DF800008BF8BA
:1018600001008BF802008BF803008BF804008BF862
:101870000500641C704705220AF1080100A804E075
:1018800050F8241000A803F085B810B513465A1E6E
:101890009BB23BB110F8013B11F8014BA342F5D0CC
:1018A000012010BD002010BD10B586B000200090B2
:1018B00001208DF804008DF805004FF4602002909F
:1018C0000020039001208DF810001D4C00A9204637
:1018D00002F04CFB052301220E21204602F076FB8C
:1018E0000121204602F060FB0121204602F065FB49
:1018F00006B010BD00F00F000A2834BF303037307A
:10190000C0B2704700090A2834BF30303730C0B247
:1019100070470648406870470448012101607047DD
:10192000A08601000038004080E200E0C4170020DB
:1019300000480040B816002000100140C0020020FE
:10194000002401400000066410E000E000140140A3
:1019500000180140001C01400020014080070020C9
:10196000FAFBF7643C54FA64486973746F726963F4
:10197000616C20436861726163746572730000007A
:101980005475726E20746865205472696D6D65724D
:101990002052563100000000746F20636F6E747225
:1019A0006F6C207468652064656C617900000000CC
:1019B0006265747765656E2074776F206672616DFD
:1019C00065732E200000000050757368204A6F79FF
:1019D000537469636B2053454C20746F0000000002
:1019E0007374617274206F722073746F702E202074
:1019F00020202020000000002050726573732053C7
:101A0000454C20746F2073746172742000000000D4
:101A1000205768656E2070726573656E74617469B5
:101A20006F6E202000000000737461727473207563
:101A300073652052494748542020202000000000B0
:101A4000616E64204C45465420746F20676F20748B
:101A50006F20202000000000746865206E65787497
:101A60002F70726576696F7573202020000000006A
:101A7000736C69646520616E642053454C20746FFB
:101A800020202020000000002020456E64206F668A
:101A900020736C6964652073686F77200000000014
:101AA000968FFE64540FFE64D80FFF647EACFC6416
:101AB000C0CCFC6402EDFC64440DFD64862DFD6425
:101AC000C84DFD640A6EFD644C8EFD648EAEFD64EF
:101AD000D0CEFD6412EFFD645E28D764A080D96487
:101AE000E2D8DB642431DE646689E064A8E1E26464
:101AF000EA39E5642C92E7646EEAE964B042EC648A
:101B0000F29AEE6434F3F064764BF364B8A3F564B0
:101B10000000000066A106001C340D004E240F00DA
:101B200002071500549D200000B42600AAB62E001E
:101B3000F04B370078973B0032AF4300006049001C
:101B40000018520040AC570074090000280A000039
:101B50002003000060090000751200003408000036
:101B6000E40C0000AC0D000040060000E40C000096
:101B700074090000480D0000E3080000860600001C
:101B80002DE9F04100F0D1FC00F000FD00F0C9FCAF
:101B90004FF0D845002028806888DFF87449A0807D
:101BA000A088472840F0F380EA2000F098FAEB2064
:101BB000288020206880EC2028800C206880ED2080
:101BC0002880C4206880E820288040206880E920A0
:101BD000288038206880F12000F07DFAF2202880EB
:101BE0001020688027202880A3206880402000F0F3
:101BF00072FA412000F073FA422000F070FA43209C
:101C0000288010206880442028800E20688045208D
:101C1000288024206880462028800420688047206F
:101C20002880502068804820288002206880492031
:101C30002880132068804A202880192068804B2043
:101C40002880192068804C20288016206880502029
:101C500028801B20688051202880312068805220F5
:101C600028802F206880532028803F2068805420BF
:101C700028803F206880552028803E20688056209C
:101C800028802F206880572028807B20688058205B
:101C900028800920688059202880062068805A20E2
:101CA0002880062068805B2028800C2068805C20CB
:101CB00028801D2068805D202880CC2068801B2023
:101CC000288068801A2000F006FA242028802F201F
:101CD000688025202880572068802320288086203F
:101CE00068801820288036206880192000F0F3F9D9
:101CF00000F0F5F91F2028808820688000F013FC90
:101D00001F2028808020688000F00DFC1F20288084
:101D10009020688000F007FC1F202880D020688079
:101D200000F001FC1720288005206880012000F0C9
:101D3000D6F9022000F0D3F9032000F0D0F90420F6
:101D400000F0C9F9052028803F206880062000F0B7
:101D5000C6F9072000F0C3F9082000F0C0F90920F7
:101D60002880EF2068801620288028206880362070
:101D700000F0B5F9362028800420688028202880CB
:101D8000382000F0E4F9282028803C209DE1002044
:101D90002880B5F802C041F218064FF4887840F266
:101DA0003F1740F2022041F230014FF4E0624FF45D
:101DB000807345F2084EF44540F0CE804FF0010CA0
:101DC00000F091F968803C2000F00DFC1120288083
:101DD000072000F0BCF91020288041F2B02000F06C
:101DE000B6F91220288040F2BD1000F0B0F913209F
:101DF00028804FF4A0506880292028800E2000F011
:101E0000A6F92020288000206880212028806F806B
:101E10003020288040F60D3068803120288041F63F
:101E2000231068803220288041F6264068803320C5
:101E3000288042F21C6068803420288042F21940D9
:101E400068803520288040F60B5068803620288036
:101E500041F206006880372028804FF4C260688015
:101E60003820288040F206706880392028804FF49E
:101E7000417068803A20288040F6056068803B20E9
:101E8000288040F6016068803C2028804FF48770ED
:101E900068803D20288040F20E5068803E202880D7
:101EA00040F2034068803F20288040F2076068804D
:101EB000502028800020688051202880EF206880F2
:101EC0005220288000206880532028806F80602066
:101ED00028804FF427406880612028800120688096
:101EE0006A20288000206880802028800020688068
:101EF000812028800020688082202880002068803F
:101F0000832028800020688084202880002068802A
:101F100085202880002068809020288010206880FC
:101F200092202880002068809320288003206880E9
:101F300095202880A5F802809720288000206880BE
:101F40009820288000206880032028806E80072049
:101F500028804FF48970B8E04FF0E50CA5F800C078
:101F60004FF4004CA5F802C04FF0000CA5F800C0DB
:101F70004FF0010CA5F802C000F0B5F800F0E7F84A
:101F80001020288041F2B07068801120288040F233
:101F9000371000F0DCF81220288040F2391000F0F1
:101FA000D6F8132028804FF4E85068802920288034
:101FB000132000F0CCF82020288000206880212009
:101FC000288000206880302028800620688031200A
:101FD000288040F201106880322028800320688029
:101FE000352028804FF4837068803620288040F6A2
:101FF000023068803720288040F202306880382024
:10200000288040F207706880392028800720688087
:102010003C2028804FF4C06068803D20288040F23A
:102020000B20688050202880002068805120288064
:10203000EF2068805220288000206880532028806C
:102040006F80602028804FF41C50688061202880B9
:10205000012068806A2028800020688080202880F5
:1020600000206880812028800020688082202880CD
:1020700000206880832028800020688084202880B9
:10208000002068808520288000206880902028809B
:10209000102068809220288000206880932028806B
:1020A0000320688095202880A5F80280972028804A
:1020B00000206880982028800020688003202880E5
:1020C0006E800720288040F27310688004F10C00B5
:1020D000A060BDE8F08128800120688070472880DA
:1020E000002068807047A5F800C06B8002232B8019
:1020F0006A8003222A806980042129800021698066
:1021000008212980688009202880002068800A2012
:102110002880002068800C202880002068800D2006
:102120002880002068800F202880002068801020F0
:1021300028800020688011202880002068801220DC
:102140002880002068801320288000207047688045
:10215000142000F048BA01B4DFF8B403BDF8001051
:10216000018001B0704701B4DFF8A403BDF800108E
:10217000418001B07047DFF89803806870472DE90F
:10218000F041804640F23F16DFF88453A86880880B
:102190004742002406E02022B1B2404600F080F819
:1021A000BE19641C4FF4A070A968898890FBF1F0F7
:1021B000A042F0D2BDE8F08110B50446DFF850032C
:1021C0008088472807BF0021002040F23F110020EF
:1021D00000F00AF84FF0D840222101804FF49631E8
:1021E0004480491EFCD110BD4FF0D842DFF82033A7
:1021F0009B88472B0FD1022313800B0A53800323A4
:102200001380C9B25180062111800021518007211D
:10221000118050807047202313805080212000F0CF
:102220007CB92DE9F843884691460026C4B2204681
:10223000FFF7DAFF4FF0D847DFF8D45206E0641C0E
:102240004146E4B22046FFF7CFFF761CA968C88854
:10225000864223D222203880002202E0288878801B
:10226000521C8B889A42EAD239F816C080204FF06F
:102270000C0E93FBFEFE4FEACE0E00FA0EF010415C
:102280001CEA000F01D10D2B06D3012090401CEA5F
:10229000000FE3D10D2BE1D36888E0E7BDE8F183BF
:1022A00010B5203ADFF868329C88472C04BF40F212
:1022B0003F14611A9B68D2B2DC8862431B6803EB4F
:1022C000420289B2BDE81040ABE72DE9F8438046F1
:1022D0000D46002440F23F17DFF83462B068808872
:1022E000C0F1000907E015F8012BB9B24046FFF72D
:1022F000D7FF4F44641C287838B14FF4A070B16800
:10230000898890FBF1F08442EDD3BDE8F18338B5C4
:102310004FF0D844DFF8F851AD88472D30D1022571
:10232000258040F23F156D1A2D126580032525800A
:1023300040F23F156D1AEDB26580042525805D1AC7
:1023400005F59F752D12658005252580591A01F523
:102350009F71C9B26180062121800021618007211F
:102360002180C0F1EF01C9B26180082121800021E4
:10237000618009212180101AEE30C0B2608031BD29
:10238000904204D350252580821A521C02E050222C
:10239000228000226280512222806080994204D3F0
:1023A00052222280CA1A521C02E0522222800022AB
:1023B0006280532222806180BDE8344014E780B5FA
:1023C0004FF4A073F02240F23F11EF20FFF79FFF80
:1023D0004FF0D840002101804188472903D11621C0
:1023E0000180282103E00321018041F2180141808E
:1023F00001BD2DE9F84F0446884692469B460025CC
:1024000040F23F10A0EB0809414EB088472808BFB2
:102410001FFA89F12046FFF7E7FE4FF0D847BBF1DE
:10242000000F0CD12220388055453EBF308878807F
:102430006D1CF9D311E0A0B2FFF7D6FE6D1C554517
:102440000BD22220388030887880641CB0884728DE
:102450000CBF1FFA89F14146EDE7BDE8F18FF8B5F1
:1024600004460D4616461F4600233A46FFF7C1FFB5
:1024700000233A46294600F04DF80123324629460A
:102480002046FFF7B6FF01233246E81B411C89B204
:10249000204601B0BDE8F040ABE710B54188828826
:1024A0004389848943EA044341EA0241C91A1A185C
:1024B0004FF0D840002303804388472B03D11623D5
:1024C0000380682303E00323038041F20803438071
:1024D00022230380002303E032F8024B44805B1C7C
:1024E000B3EB510FF8D3002101804188472904D173
:1024F000162101802821418010BD0321018041F275
:102500001801418000210020BDE810406CE6000069
:10251000E8080020301980B26BE7108051807047C6
:10252000608005205FE006205DE080B501214FF46A
:10253000807000F0FCFD012140F2E11000F000FE8F
:102540004CF23370ADF8000003208DF80200182023
:102550008DF8030000A92C4800F00AFA4FF68070AD
:10256000ADF8000000A9294800F002FA0120ADF8FA
:10257000000000A9264800F0FBF94FF48050ADF8A8
:10258000000000A9234800F0F3F901BD00B597B0A1
:102590000120009000200190022002900020039072
:1025A000049005900690062007900020089009905E
:1025B00010200A9000200B900C900D900E900F9020
:1025C0004FF480501090002011901290139000A8AA
:1025D0001490159007A802F00FFD0121062002F0CB
:1025E00098FD17B000BD01B481B0002000900198A3
:1025F0000949484301E00098401E009000980028D7
:10260000F9D102B0704700000014014000180140E9
:10261000001C014000200140A086010010B582B0DE
:10262000044601210FF2F41050F8240000F088FD58
:102630000FF2E01030F8140000F098F803208DF845
:10264000020000A9DFF8A80150F824008BE0DFF8B1
:10265000A01151F820100FF2BC1232F810000861DE
:102660007047DFF88C1151F820100FF2A81232F8E1
:102670001000486170470FF2B41131F810105D4A34
:1026800052F8200000F0D2B90420ADF8000000A9F3
:10269000594800F06DB980B50121B02000F050FD1F
:1026A0004FF4F85000F068F800F013F8FFF7ECFF73
:1026B0004FF4006000F08CF8504800F059F9012107
:1026C0004FF4806000F033FD0121022000F02FFD67
:1026D00001BD8DF8030000A9494800F049B970B563
:1026E0008CB000F039F800F032F8464800900195BF
:1026F000102009E070B58CB000F02EF800F027F83B
:1027000040480090019500200290B00803900020FE
:102710000490802005904FF4007006904FF4006004
:102720000790002008904FF40050099000200A9074
:1027300000A9204602F067FD01220221204602F096
:1027400087FD0121204602F079FD0CB070BD2E4CB2
:102750000021204602F072BD05460E462B4802F0CD
:102760008ABD00A92A4800F003F913BDADF80000A6
:1027700010208DF803007047ADF8000003208DF89D
:102780000200182070478020ADF8000000A9204604
:1027900000F0EEB810B582B001214FF4001000F047
:1027A000D8FC0121082000F0CBFC402000F00AF802
:1027B0001C2000F014F8FFF7E6FF202000F008F8D6
:1027C0002046D0E7ADF8000003208DF802007047E6
:1027D000ADF8000048208DF8030000A970478DF87F
:1027E00003000B4C00A9204600F0C2B80000000016
:1027F000240900206008002000140140001C014052
:1028000000100140808001404404024000F00010AC
:10281000000C014040008000000100028000000028
:102820008000000080000000800000000100002007
:1028300000010020004000800800800062B38B0788
:1028400008D0521E11F8013B00F8013B00F0248033
:102850008B07F6D1830740F0208000BF103A07D3E2
:1028600030B4B1E83810103AA0E83810F9D230BCD2
:10287000530724BFB1E80810A0E8081044BF51F87E
:10288000043B40F8043BD20724BF31F8022B20F868
:10289000022B44BF0B7803707047083A07D3B1E8A6
:1028A0000810083A40F8043B40F804CBF7D253072D
:1028B000E4E750F8041B61B150F8042BD30744BF80
:1028C000A9F101039A18002342F8043B091FFAD129
:1028D000EFE7704780B56649884206D101210420A0
:1028E00000F040FC002104203CE06249884206D10F
:1028F0000121082000F036FC0021082032E05E496A
:10290000884206D10121102000F02CFC002110206B
:1029100028E05A49884206D10121202000F022FCFB
:10292000002120201EE05649884206D10121402086
:1029300000F018FC0021402014E05249884206D1E2
:102940000121802000F00EFC002180200AE04E4989
:10295000884208D101214FF4807000F003FC00216F
:102960004FF4807000E001BDBDE8044000F0FABB08
:102970002DE9F0410022CC7804F00F03E40644BFB7
:102980008C7823430C8801250F26E7B217B3D0F8C3
:1029900000C005FA02F7BE460EEA0408F04514D15D
:1029A0004FEA820E06FA0EF82CEA080C03FA0EFE25
:1029B0004EEA0C0C91F803E0BEF1280F08BF476106
:1029C00003D0BEF1480F08BF0761521C082AE0D3AC
:1029D000C0F800C0B4F5807F26D3D0F804C0002230
:1029E00002F1080705FA07F7BE460EEA0408F045AB
:1029F00015D14FEA820E06FA0EF82CEA080C03FAFB
:102A00000EFE4EEA0C0C91F803E0BEF1280F08BF51
:102A1000476191F803E0BEF1480F08BF0761521CFF
:102A2000082ADDD3C0F804C0BDE8F0810022806828
:102A3000084218BF0122104670470161704741618A
:102A400070470AB1016170474161704730B501F0CC
:102A50000302920021F003010C4BCC580F25954046
:102A6000AC43CC50CC5890402043C85030BD0000FF
:102A700000080140000C014000100140001401401A
:102A800000180140001C01400020014008000140E6
:102A900000F010F8DFF8244420680128FCD1002061
:102AA00000F0C8F8FDF785FB012000F0C3F8002016
:102AB0002060F1E710B5012140F2FD1000F040FB6D
:102AC00001214FF4006000F03BFB00F0D0F800F073
:102AD00031F800F097F800F031F902F0F3FBFFF75E
:102AE0004FF84FF6FF742046FFF766FBDFF8D00380
:102AF000007828B9DFF8CC03016841F0004101609B
:102B000000F070F9FDF744FD2046FFF755FB03F098
:102B1000DAF8012000F049F902F0D4FB1F20FFF79A
:102B200022FB2046FFF717FBFDF702FBBDE8104034
:102B3000FDF731BCE0B500214FF0006000F0C9FDA9
:102B40004FF4A06000F094FD092000F043F8172036
:102B500000F040F828208DF80000022000F047F82F
:102B600003208DF8000000208DF8010000F042F8ED
:102B700014208DF80000012000F039F813208DF8A2
:102B80000000002000F029F8192000F01DF80320B3
:102B900000F030F8292000F017F88DF802008DF8C9
:102BA000030000A800F069FD00208DF808004FF434
:102BB0000030019008208DF8090001208DF80A00EE
:102BC00001A800F09BFD07BD8DF8000001208DF8E5
:102BD000010070478DF8000002208DF801000120EF
:102BE0008DF802008DF8030000A800F046BD8DF8B6
:102BF000010000208DF8020001208DF8030000A8DC
:102C000000F03BBDB04800686421B0FBF1F0B0F1CA
:102C1000807F0ED2AD490002000A401E4860AC48D9
:102C2000F022027000228A6007220A6000210170EF
:102C30007047FEE730B583B0044600A800F090FD71
:102C400048F2880514B9009500200AE0284600F0F3
:102C50009AFD00208DF8040000950C208DF80500E9
:102C600001208DF8060000A800F048FD37BD80B5B2
:102C70004EF2801000F01DF89648FFF779FE08200C
:102C800000F017F89448FFF773FE0D2100F018F8D4
:102C90000E2100F015F803210320FFF7D7FE0F21C6
:102CA00000F00EF8072100F00BF8082100F008F8FA
:102CB00001BDADF8000004208DF8030000A97047A5
:102CC0000620FFF7C3BE01B48448009901607F4924
:102CD0000A6842F001020A600268002AFCD1086812
:102CE0004008400008600020886001B0704711B5BE
:102CF00081B0002000907548016841F00101016039
:102D0000764C0198206002E0FDF7D8FA0090206828
:102D100038B1009802281FBF0098032800980128A6
:102D2000F2D1009816BD6D48016811B10168491EC5
:102D300001607047614801210160704710B588B09B
:102D400000A804F008FA03A804F00EFA0020FFF728
:102D500065FC0120FFF762FC0220FFF75FFC032007
:102D6000FFF75CFC40F2CF20ADF800000020ADF88A
:102D7000020042F20F70ADF804000020ADF806002A
:102D80008DF80800564C00A9204604F061F9002097
:102D9000ADF80C000120ADF80E000020049003A94E
:102DA000204604F099F908B010BD10B54C4C4D49BF
:102DB000012807D1086001220121204604F0E8F92A
:102DC000012107E00020086000220121204604F0D4
:102DD000DFF900212046BDE8104004F0CFB941489A
:102DE0000068704780B5FEF794FC00285FD01F2074
:102DF000FFF7B9F94FF6FF70FFF7ADF9FFF7BBF931
:102E00000FF2E4010020FFF760FAFFF7B4F90FF2C8
:102E1000F001C088FFF759FAFFF7ADF90FF2F8019A
:102E2000C0884004000CFFF750FAFFF7A4F90FF236
:102E30000011C08800EB400000F03AF8FFF79BF962
:102E40000FF20411C0888004000CFFF73EFAFFF770
:102E500092F90FF20C11C08800EB800000F028F806
:102E6000FFF789F90FF21011C0880622504300F0D5
:102E70001FF8FFF780F90FF21811C088C0EBC000EF
:102E800000F016F8FFF777F90FF21C11C088C004A4
:102E9000000CFFF71AFAFFF76EF90FF22411C08841
:102EA00000EBC00000F004F800F096F8FEE701BD6A
:102EB00080B2FFF70ABA024800787047F81700207E
:102EC0001C0A002004ED00E02009002010E000E0D2
:102ED00023ED00E00020014000140140F017002025
:102EE000002C0140F41700202020202020205761D2
:102EF000726E696E672020202020202000000000D4
:102F00004E6F206C6F61646564204269746D6170FE
:102F1000202020200000000066696C65732E20448C
:102F2000656D6F2063616E2774206265000000008C
:102F300065786563757465642E202020202020202C
:102F40002020202000000000506C65617365206225
:102F5000652073757265207468617420000000003C
:102F6000616C6C2066696C6573206172652020203D
:102F70002020202000000000636F72726563746C73
:102F8000792070726F6772616D6D6564000000007A
:102F9000696E20746865204E4F5220464C4153485C
:102FA00020616E64000000007265737461727420A9
:102FB0007468652044656D6F2E202020000000009D
:102FC0002020202020202020202020202020202001
:102FD00020202020000000007F48016841F001010E
:102FE000016041687D4A1140416001687C4A11409E
:102FF0000160016821F480210160416821F4FE0133
:1030000041604FF41F018160704773490A6822F4E0
:1030100080320A600A6822F480220A60B0F5803F9C
:1030200003D0B0F5802F04D07047086840F480309A
:1030300002E0086840F4A0200860704710B582B034
:10304000002000900024312000F0A4F80099491CD1
:1030500000910099B1F5A06F01D00028F3D0312084
:1030600000F098F800B10124204616BD5E490860C2
:1030700070475C490A68920850EA8200086070470D
:103080005848006800F00C00704710430860704713
:10309000564908607047564900220A700A70012894
:1030A00002D0042801D105200870704750490A68F1
:1030B000EBE750490860704730B54A490A684E4B03
:1030C00002F00C02082A0ED10A680C68C2F383428F
:1030D000921C4A4D5543E40302D50C68A40301D564
:1030E0002B4600E0534303600B68454A0468C3F372
:1030F00003139B5C24FA03F343600B684468C3F337
:1031000002239B5C24FA03F383600B684468C3F3D7
:10311000C2239B5C24FA03F3C3600968C368C1F34C
:1031200081318918097CB3FBF1F1016130BD354A69
:103130000029116814BF084321EA0000106070479D
:10314000314A0029116814BF084321EA00001060C9
:1031500070472E4A0029116814BF084321EA000075
:10316000106070472A4A0029116814BF084321EAF9
:10317000000010607047274A0029116814BF0843F7
:1031800021EA000010607047234908607047234916
:1031900008607047002142090F4B012A08BF1A68D6
:1031A00003D0022A0CBF1A6A5A6A012300F01F00DA
:1031B00003FA00F0024218BF0121084670470021BF
:1031C000174A1268024218BF012108467047154984
:1031D0000870704700000000001002400000FFF877
:1031E000FFFFF6FE0410024060004242D800424257
:1031F000201002403C04424200127A0000093D00C7
:10320000FC08002014100240181002401C1002405C
:103210000C10024010100240400442424C00424256
:10322000081002400A10024070B598B001214FF416
:10323000F070FFF785FF4CF20370ADF80000182026
:103240008DF8030003208DF80200444C00F067F86D
:103250004FF68070ADF80000414D00A92846FFF7F9
:1032600087FB4FF23F00ADF8000000A93D48FFF793
:103270007FFB3F20ADF800003B4E00A93046FFF732
:1032800077FB4FF4605000F048F87820ADF800006C
:1032900000A92846FFF76CFB302000F03EF84FF401
:1032A0000070ADF8000000A93046FFF761FB402038
:1032B000ADF8000004208DF8030000F030F8022083
:1032C00001900020029005200390002004900590BA
:1032D00006904FF08050079002200890002009903F
:1032E00008200A9010200B9000200C900D900E905A
:1032F0000F9010904FF48050119000201290139076
:10330000149001A81590169008A801F075FE0121EF
:10331000022001F0FEFE18B070BDADF8000000A95B
:103320002046FFF725BB1149AA220A80104A5523DF
:10333000138090220A804FF0C8410A8802804A8890
:1033400042808A8B8280C98BC1807047FFE74FF033
:10335000C840F021018000207047000000140140A7
:1033600000180140001C014000200140AA0A00642E
:10337000540500641FB5FFF70DFADFF8B042204690
:1033800003F026FF0A20ADF804004BF6FF70ADF8FD
:1033900006000020ADF808004FF48060ADF80A0088
:1033A0004FF48040ADF80C00DFF88402009000A9D3
:1033B000204603F026FF01224FF48071204603F0DF
:1033C000BDFF0121204603F07DFF1FBD70B58CB00D
:1033D00004460E46154601210120FFF7A8FEDFF83E
:1033E0005402009001960020049080200590002057
:1033F0000690079008904FF44050099000200A90E2
:10340000012C04D102900395DFF82C4205E05CB951
:10341000102002900395DFF82442204601F0A6FE1A
:1034200000A9204601F0EFFE0CB070BDF8B5DFF842
:1034300010422546DFF8F461DFF80872394630465D
:1034400003F0C1FF0121304603F06EFF00F0E5F804
:1034500001E0ADB16D1EDFF8F01100F0C4F80028F6
:10346000F7D06DB1254600F0B7F800E06D1E00F012
:103470000BF808B9002DF9D100F0D3F800B90DB957
:103480000020F2BD0120F2BDDFF8C011304603F08C
:1034900073BFDFF8A8710121384601F0CFBE2DE9D6
:1034A000F04182B000F0AFF800F09BF828B120683E
:1034B000411E21600028F7D15DE000F06FF8012186
:1034C000304603F013FF00F0A8F800F077F841460B
:1034D00000F089F828B92068411E21600028F6D143
:1034E00049E000F079F82760FFF7CEFF28B920689F
:1034F000411E21600028F7D13DE0002100F053F883
:103500002760DFF84C1100F06EF850B9DFF8441175
:1035100000F069F828B92068411E21600028F0D128
:1035200029E000F07AF82760414600F05CF828B9FD
:103530002068411E21600028F6D11CE000F056F8FA
:103540002760DFF81411FFF7A1FF28B92068411E9A
:1035500021600028F5D10EE000F051F8DFF8D870B6
:10356000FFF799FF256000F033F830B92068411E5D
:1035700021600028F7D101200EE000F03CF800F0B7
:1035800019F800F013F800F01FF89DF800009DF8FE
:10359000011041EA0020C009BDE8F681022200A91D
:1035A000012013E70121304603F0D0BE0021304650
:1035B00003F092BE0021384601F040BE4FF4805720
:1035C0002760DFF8848070474FF0007001F053BE31
:1035D0004FF0007001F044BE00229021304603F00D
:1035E000BABE4FF40031304603F0D3BE0122902121
:1035F000304603F0B0BE0121304603F08BBE0121FE
:10360000304603F069BE0020ADF80000DFF84C4002
:103610004FF420452560054E70470121304603F0E8
:103620006FBE3946304603F0B4BE0000005400407F
:10363000A086010010540040800002406C0002404F
:10364000FFFF0300000400100100001082000700CB
:10365000800000100400001002000300100A002087
:10366000002203F0B5BE0268531C0360117070475E
:103670001B4908431B490860704770B503781A4618
:103680000121C478ECB1174B1B6803F4E063C3F568
:10369000E0631B0A4478C3F10405AC4085780F262B
:1036A00026FA03F32B4023431B010F4C13550078DC
:1036B00042110E4B00F01F0001FA00F043F8220007
:1036C00070BD50110A4A03F01F03994042F82010C0
:1036D00070BD084A11400843074908607047000060
:1036E0000000FA050CED00E000E400E000E100E07D
:1036F00080E100E080FFFF1F08ED00E030B50168C9
:10370000CB43234982792AB30A46146823401360C5
:1037100053680468A34353600379CC182368056891
:103720002B43236093680468A3439360D3680468C1
:10373000A343D36043790568102B07D191682943CF
:103740009160D16800680843D06030BDCC18206813
:10375000284303E000790C1820681840206030BD31
:103760000021016001710C214171002181717047BC
:103770000021074A13680340526902421CBF002B14
:1037800001210846704700BF0249086070470000E9
:103790000004014014040140F8B5044608461146EF
:1037A000DFF82055DFF820652278052A28D8DFE8E1
:1037B00002F0031F946D7578407800282BD100F03B
:1037C000D8F928212846FFF74BFFDFF80005002134
:1037D000018000230A189370491C1429FAD3002190
:1037E0000A189375491C1429FAD34385012075E002
:1037F0004078002873D180213046FFF717F928B9A7
:103800006BE000F033FA002000F06AF82078052819
:1038100065D0032802D1F1BD0220207028260020A7
:103820008DF8000000272078012823D0022804D03A
:103830000328EBD00528E4D026E000F017FA07E0D3
:1038400000F072F8012804BF9DF8000005F8010B94
:103850003046461EC0B20028F2D1287800283CD05D
:1038600003203BE000F060F8012804BF9DF8000051
:1038700078557F1C282FF5D328780028CCD003203A
:10388000207000F0F3F9C1E70120C6E7407830BBB3
:10389000284600F008F900BB04201FE000F048F8BB
:1038A000F1BD012000F01CF8DFF8240400F016FA46
:1038B000DFF820442046FFF70DF82046FFF70AF80E
:1038C0003046FFF707F800211820FFF739FC0021E8
:1038D0004FF48020FFF73DFCF1BD05202070F1BDC5
:1038E000DFF8E42318B140211046FFF7A6B84021C5
:1038F0001046FFF7A4B802464FF40061DFF8D40386
:10390000FFF79FB810B5DFF8C843DFF8CC030178A4
:10391000204600F0B7FA00F003F80028FBD010BDF5
:103920004021204600F0DABA4FF4804100A8B0E10F
:103930002DE9F04182B004460D4600208DF80000CC
:103940001421284603F05EFD002028756875DFF815
:10395000808301224021404600F086FADE4F207825
:1039600000F098F800F09BF80028FBD0607800F099
:1039700091F800F094F80028FBD0A07800F08AF8C5
:1039800000F08DF80028FBD0E07800F083F800F01C
:1039900086F80028FBD0207930B100F07BF800F0E9
:1039A0007EF80028FBD007E0607E28B100F072F8B6
:1039B00000F075F80028FBD0404600F067FAFFF7EA
:1039C000B3FF012821D19DF8000000F0F00160292B
:1039D00018BF902908D12875FFF7A6FF012814D138
:1039E0009DF80000687510E0617800F0FE02CB439E
:1039F00003F0FE039A421EBF00F0FE0001F0FE013C
:103A0000884204BF9DF800002870287D00283FD11F
:103A10002079B0B1002608E03019407900F03AF87A
:103A200000F03DF80028FBD0761C20798642F3D3C5
:103A3000404600F02BFA00224021404600F014FAE4
:103A40000EE0607E60B1002607E0FFF76DFF012801
:103A500004BF9DF800007055761C607E8642F4D34A
:103A60000024FFF761FF012803D19DF800002875AD
:103A700002E0641C0A2CF4D30024FFF755FF012850
:103A800003D19DF80000687502E0641C0A2CF4D391
:103A9000BDE8F38138703978404600F0F3B9402131
:103AA000404600F01BBAF0B500210023874A047895
:103AB00014704478547004F00F0582F82B502406DB
:103AC00048BF012392F82A40557805F0F0050E1DF5
:103AD000354105F001052C1982F82A40491C0429BA
:103AE000F0D3002404E0A1182518AD788D70641C73
:103AF00092F82A108C42F6D38918497801F00F0108
:103B00000CE02E19B7183618B678BE70641C92F8FF
:103B10002A60B442F5D3AC1982F82A401BB392F85C
:103B20002A50AB185B78DB09002482F82A4092F80F
:103B30002A60AF187F7807F0F00704F1040C47FA09
:103B40000CF707F00107BE1982F82A60641C042CE8
:103B5000EDD30024DBE792F82A40E4182418A47877
:103B60009D18AC755B1C92F82B40A342F3D308461A
:103B7000F0BD2DE9F04188B001211820FFF7E0FAEF
:103B800001214FF48020FFF7E4FA4FF48054ADF8A0
:103B9000004018208DF8030003208DF802004D4DE1
:103BA00000F068F84FF48066ADF800601C2000F06B
:103BB0005FF84FF40068ADF80080102000F058F86E
:103BC0000120ADF8000000F055F84020ADF80000ED
:103BD00000A93D48FEF7CCFE3D4F0521384600F0D8
:103BE00061F91021384600F055F9ADF8048000F075
:103BF00045F8384600F00AF942F2CD500390ADF88E
:103C000010404FF44050ADF81200ADF8146000F0D1
:103C100025F8384600F0A6F801222821384600F0A1
:103C20000BF901226021384600F006F901213846DF
:103C300000F0F8F80121384600F046F90121384635
:103C400000F038F900F012F801212846FEF7F5FEE1
:103C50000020FFF745FE08B0BDE8F0810C20ADF86C
:103C600016000020ADF8180003A97047012042E6B5
:103C70008DF8030000A92846FEF77ABE0020ADF8B3
:103C80000600ADF808004FF48070ADF80A0001A9F5
:103C90007047F8B504460D4600260D4F00E0761C2F
:103CA0002021384600F01AF908B9AE42F7D1AE42E9
:103CB00005D0384600F0EAF820700120F2BD00205F
:103CC000F2BD00001017002000100140B8160020BF
:103CD00000480040000C01408803002080B54649A0
:103CE00088420BD101214FF48040FFF73BFA0021BD
:103CF0004FF48040BDE80440FFF734BA3F498842A2
:103D000008D101214FF40030FFF735FA00214FF4BC
:103D1000003022E03A49884208D101214FF4802046
:103D2000FFF729FA00214FF4802016E03549884238
:103D300008D101214FF40020FFF71DFA00214FF4B4
:103D400000200AE0304988420BD101214FF4801055
:103D5000FFF711FA00214FF48010BDE80440FFF78F
:103D60000ABA01BD30B585B004460D46208A4CF62E
:103D7000FF710840E98808432082A0894EF6F311BC
:103D80000840A98808432989084369890843A08114
:103D9000A08A4FF6FF410840A9890843A08200A8E5
:103DA000FFF78AF9144884420CBF039802982968E7
:103DB00019225043A28912044CBF49008900B0FB6C
:103DC000F1F16422B1FBF2F00001030902FB1311CF
:103DD000A3891B0406D5C9003231B1FBF2F101F011
:103DE000070105E009013231B1FBF2F101F00F01E9
:103DF0000843208105B030BD003801400044004038
:103E000000480040004C004000500040028A4FF241
:103E1000FF031A400B881A434B881A438B881A43B6
:103E2000C9882CE00029818912BF41F400514DF668
:103E3000FF7211408181704710B50B065B0F0124A2
:103E400001F01F0104FA01F1012B08BF0C3003D06F
:103E5000022B0CBF10301430002A026814BF11432B
:103E600022EA0101016010BD002A828A14BF1143B9
:103E700022EA0101818270471A400282028A1143BC
:103E800001827047C905C90D818070478088C005CF
:103E9000C00D7047028BD2B20283028B42EA01212D
:103EA00001837047028B02F47F420283028B11432D
:103EB000018370470029818A12BF41F020014FF62B
:103EC000DF721140818270470029818A12BF41F060
:103ED00010014FF6EF721140818270470022008876
:103EE000084218BF01221046704730B50A4600212B
:103EF00013065B0F012402F01F0504FA05F5012BE0
:103F000008BF838903D0022B0CBF038A838A2B400E
:103F1000120A04FA02F200881040002B1CBF00288D
:103F20000121084630BD0122090A02FA01F189B2D5
:103F3000C9430180704700000CB41CB5044604A8B6
:103F40000190009401AB0A4600A907487844183054
:103F500003F05CFA009900220A7000285CBF009808
:103F6000001B16BC5DF80CFBFFF6FFFF4268384BE8
:103F70001A400B681A430B7942EA032242608268B6
:103F8000344B1A40CB681A438B681A434B7942EA88
:103F900043028260C26A22F47002097C491EC9B2DF
:103FA00042EA0151C16270470029816812BF41F0A5
:103FB000010149084900816070470029816814BFE8
:103FC00041F4A00121F4A0018160704770B507247D
:103FD0000A290BD3A1F10A0505EB4505C668AC40DB
:103FE00026EA0404AB402343C36008E001EB41052B
:103FF0000669AC4026EA0404AB40234303611F2357
:10400000072A0AD2521E02EB8202446B934024EA32
:10401000030391401943416370BD0D2A0AD2D21F98
:1040200002EB8202046B934024EA0303914019439C
:10403000016370BD0D3A02EB8202C46A934024EA28
:10404000030391401943C16270BDC06C80B27047D8
:10405000FFFEF0FFFDF7F1FF2DE9F04186B00446C9
:10406000DFF8C459296224208DF8040000208DF85F
:1040700005008DF8060001208DF8070001A8FFF764
:10408000FCFA012140F29910FFF75AF84FF4304042
:1040900000F07BF818208DF80300DFF8906900A984
:1040A0003046FEF765FCC020ADF8000000A9DFF83F
:1040B0008009FEF75DFCC02000F067F81C2000F0CE
:1040C00031FC01214FF40010FFF743F80020FEF708
:1040D000C8FA0120FEF7C5FA0220FEF7C2FA032053
:1040E000FEF7BFFADFF84C694FF400613046FEF787
:1040F000A6FC4FF4006000F048F800F012FC00F05D
:10410000F4F96864DFF83069032804D2802100F0F4
:1041100005FC686C36E0AF8B01214FF48040FFF75F
:1041200018F8DFF81889404604F09EF94FF4007043
:10413000ADF808000021ADF80A10ADF80C10ADF88C
:104140000E000497ADF8141002A9404604F0BEF921
:1041500000227121404604F00AFA0121404604F091
:10416000FCF92C6418234FF400720021A0B200F077
:10417000F6F920B1402100F0D1FB032002E000F06D
:10418000CBFB002006B0BDE8F081ADF800000320B5
:104190008DF802007047DFF8901808634863704795
:1041A00010B5DFF88448206A0120E063E06B01224B
:1041B00000F017F8E06A10BD80B500F011F8DFF8E4
:1041C00068080221C163C16B00218164C164418917
:1041D000012903D1C16A49084900C162C06A02BD10
:1041E00000227121DFF8540804F0C1B910B5FFF7BF
:1041F000F7FFDFF834480020E062022000F04DF8BD
:104200000020E063E06B0020A064E06410BD38B5DE
:104210000C46DFF8145869780F280DD1042938BFEF
:10422000002003D30A2000F0D6FA001B68706978DA
:104230000A20BDE834408EE20A2807D1FC2928BFB5
:10424000FF20F3D200F0C7FA2018EFE710B96C7026
:104250002146EDE7FF2032BD38B50446FFF7ACFF3D
:1042600000F013F800F008F907E038B50446FFF74E
:10427000A3FF00F00AF800F00DF9E86A40084000DA
:10428000E862E86ABDE832408AE7DFF89C57686A6E
:104290006421B0FBF1F06043704780B5022806D17D
:1042A00000F00DF800210020BDE8044053E24FF477
:1042B0000061DFF88007BDE80440FEF7C0BB402185
:1042C000002048E210B5DFF86C474FF4006120464B
:1042D000FEF7B5FBFF2000F0CDFB4FF40061204658
:1042E000BDE81040FEF7A9BBF8B504460D46FFF740
:1042F000E9FFDFF83467F76A29462046FFF7ACFE8E
:1043000038B9F7627178FFF782FF3846FFF748FF48
:104310000020F2BD38B5DFF82447DFF80C57E86B12
:1043200038B90421204604F031F9012808BFFFF70D
:104330005DFFE86B022809D10421204604F026F92C
:10434000012804BFBDE83140FFF736BF31BDDFF8BB
:10435000D806806A7047DFF8D0064078704738B5D5
:104360000025DFF8C446257000F07BF8DFF8D01692
:10437000884201D0012032BD00F06DF8606000F08D
:1043800070F8DFF8C016884201D0022032BD00F07C
:1043900068F8DFF8B416884201D0032032BD00F07F
:1043A0005AF8102818BF012500F058F820812089FC
:1043B000012801D0042032BD00F050F8608100F0E7
:1043C0004AF8E060B0F5FA5F18BFB0F57A5F0BD03D
:1043D00045F2226188421FBF4AF6444188424BF6AB
:1043E000803188420FD010E0A08300F034F82061C3
:1043F00000F034F8A08200F031F8E082E08A102862
:1044000005D0072032BD0846EEE7062032BD8DB14B
:1044100000F024F808B1092032BD00F022F8DFF8DE
:104420002C16884201D00A2032BD00F014F8217801
:104430004018207000F015F8DFF81416884201D0FB
:10444000082032BD00F007F8A061A06A21780818A2
:10445000A062002032BD0021042016E200210220CB
:1044600013E20121042010E2DFF8BC05C06A7047A6
:10447000DFF8B415C8627047DFF8AC15CA6A801857
:10448000C862C86A4A6A904203D3886AC862086AE6
:1044900016E07047DFF89015CA6A904203D3886A25
:1044A000C862086A7047CA6A101AC8627047DFF8A3
:1044B0007805C06B7047DFF87015C863C86B70472C
:1044C000DFF86405016B426B29B1521E03D1002154
:1044D000C163C16B026B42637047DFF84C05006C2F
:1044E0007047DFF84405406A704738B500F024FA99
:1044F00008B1012032BDDFF85C45DFF82C5564229D
:10450000296A204600F046FA2046FFF728FFA870E7
:10451000A87820B9A8696862E968A98332BD022039
:1045200032BD00B585B00020ADF804004BF6FF7039
:10453000ADF806003320ADF808004FF48060ADF808
:104540000A004FF48040ADF80C00DFF80C05009035
:1045500000A9DFF8080502F054FE05B000BD2DE902
:10456000F84F05460E46924699460027B846DFF8B2
:10457000B844A763A06BFFF7A5FE16B1102E02D0BA
:1045800003E0032602E0022600E00126DFF8ACB4D7
:10459000A80763D5BAF1000F0DD14FF0010800F064
:1045A000CBF8074600F0C5F8C719FFF788FEC71912
:1045B0000121084608E0314600F0C0F8074600F047
:1045C000BFF8C7194021404600F0C5F8C71900F0F0
:1045D000BAF83C21062000F0BEF8C719E1210820F6
:1045E00000F0B9F8C71900210B2000F0B4F8C71982
:1045F0002021072000F0AFF8C719C121092000F0E1
:10460000AAF8C719C1210C2000F0A5F8C71900F0BD
:1046100097F8C71909210F2000F09DF8C719182134
:104620000E2000F098F8C71949460A2000F093F8C8
:10463000C71949460D2000F08EF8C7197421FFF7FD
:104640003FFEC71948F03001012000F084F8C71977
:1046500048F07001012000F07EF8C719E8075DD529
:10466000BAF1000F0BD100F067F8C51900F061F83E
:104670004519FFF724FE45190121012008E03146C4
:1046800000F05CF8C51900F05BF8451940210020E6
:1046900000F061F8451900F056F8022100F04AF8E0
:1046A00045192021022000F056F845191021032059
:1046B00000F051F845193C21062000F04CF845194E
:1046C000E121082000F047F8451900210B2000F0F7
:1046D00042F845192021072000F03DF845199121A5
:1046E000092000F038F8451991210C2000F033F82A
:1046F000451949460A2000F02EF8451949460D2073
:1047000000F029F800EB05095421FFF7D9FD814499
:10471000A021022000F01FF800EB09070022712100
:10472000584603F024FF0020A063A06B3846BDE884
:10473000F28F032105200EE046F0200104200AE05C
:104740000021052007E00120A063A06B0122712158
:10475000584603F00CBF70B504460D46BF4E01210C
:10476000304602F000FE0021304602F0FCFD01213F
:10477000304602F0A7FDFFF7D4FE0121304602F0DB
:10478000BFFDB74900F024F80028FAD00022272105
:10479000304602F0E0FDB34900F01AF80028FAD0E4
:1047A000E1B2304602F0D2FDAF4C00F010F8002824
:1047B000FBD0E9B2304602F0C9FD00F008F800284D
:1047C000FBD00121304602F0A5FD002070BD21463E
:1047D000304602F0D1BD70B50446A04D00212846F8
:1047E00002F070FD0121284602F0BDFD002128469F
:1047F00002F0B9FDFFF795FE0121284602F080FD89
:10480000974E00F03EF80028FBD00021284602F029
:104810008BFD00222721284602F09DFD914900F0E2
:1048200031F80028FAD0E1B2284602F08FFD8E4917
:1048300000F028F80028FAD00121284602F060FD97
:1048400000F01FF80028FBD001222721284602F0A3
:1048500082FD864900F016F80028FAD0844900F05D
:1048600011F80028FAD00121284602F053FD28460D
:1048700002F06EFD04460121284602F055FD204657
:1048800070BD3146284602F077BDF0B50A460025D6
:104890000021654B6F4C52B9854214D21A78165DCF
:1048A000EF00BE403143521C1A706D1CF4E7050046
:1048B00008E01878025D6E1EF600B2401143401CFD
:1048C00018706D1EF5D10846F0BD70B582B0054672
:1048D000554CA06CD8B900F04DF800F029F800F064
:1048E0004EF8544E00A93046FEF742F8206A285A86
:1048F000E06400F03BF800F014F800F00DF800F070
:1049000073F86089012804D1A06C401C00E00020ED
:10491000A064E06C80B276BD4FF400713046FEF7C3
:104920008CB810208DF8030000A93046FEF720B89F
:104930000121022000F0EDBB10B582B000F01AF8A2
:10494000FEF772FCFEF702FD00F010F800F017F819
:10495000384C00A92046FEF70BF84FF400712046B2
:10496000FEF76BF800F040F8002016BD0021022091
:1049700000F0CFBB01214FF48070FEF7D8BB1820A8
:104980008DF8030003208DF802004FF40070ADF89D
:1049900000007047F8B504460D461646FFF7EAFFDB
:1049A000FFF7C6FFFFF7EBFF224F00A93846FDF7E0
:1049B000DFFF03E015F8010B04F8010B3046461E3B
:1049C00080B20028F6D1FFF7D1FF10208DF8030048
:1049D00000A93846FDF7CCFF4FF400713846FEF7CA
:1049E0002CF800F001F8F1BD00214FF48070FEF7C3
:1049F0009EBB38B5114C0C4DA86B012806D141F275
:104A000011112046BDE8344003F0BEBDE86AFFF74F
:104A10005CFF0146204603F0B7FD6889FFF72CFDD7
:104A2000BDE8314076E40000EC030020000C0140BA
:104A30000010014000200140001C014000380040EF
:104A4000464649524556415720746D667463616607
:104A50006174616484150020400D0300005400401F
:104A60000100030082000700840007000200030029
:104A70004000030001B402E00098401E009000983E
:104A80000028F9D101B07047F8B500244FF6FF7542
:104A90002846FDF791FB0020FEF7CCF8FBF70EFC53
:104AA0000028FBD1DFF8FC0400F0ADF80020FFF790
:104AB00072FBDFF8F46431460120FFF7CDFA04E021
:104AC000FFF745FCFFF76CFB62B6FBF7F7FB074609
:104AD0003CB972B64FF4805000F095F8DFF8CC4442
:104AE00062B6641E042F15D100F08AF8012808D19F
:104AF00004210F20FFF78BFB4FF4803000F083F888
:104B0000E2E700F07AF831460120FFF7EDFB0028DC
:104B1000DAD063E0052F0BD100F072F8012802D142
:104B200004210A20E6E700F068F831460220ECE7AD
:104B3000022F09D100F064F80128C5D10220FFF747
:104B40008BFB4FF48070D9E7032F07D100F058F8A2
:104B50000128B9D10620FFF788FBF2E7012F18D111
:104B600072B64FF0805000F04EF80020FFF7A3FC23
:104B700062B6FFF73BFB00227121DFF8340403F03B
:104B8000F6FC00F0A9F92846FDF716FBFBF7DDFA65
:104B90002EE0062F99D100F033F8012807D14FF409
:104BA000801000F030F80220FFF785FC8CE7FFF75B
:104BB0007EFC022804D100F020F8FFF755FC81E7C5
:104BC000FFF775FC0028F1D100F017F8FFF785FC1E
:104BD0003146FFF741FA00283FF472AF00F081F947
:104BE00000F07AF92846FDF7E7FAFBF7AEFA62B66D
:104BF0000120BDE8F240FEF71DB84FF0807002E0E2
:104C000072B6FFF754BC2DE9F84F8346002700F039
:104C100063F9E84C04F1A400009004F190086425C5
:104C20004FF61F0906264FF6FF7ABBF5807F34D07A
:104C3000BBF5805F0ED0BBF5801F52D0BBF1807FEB
:104C400067D0BBF1805F00F08B80D6498B4500F0C8
:104C50008580D0E0FFF708FC0446FFF742FC05FB27
:104C600004F1B1FBF0F5EDB2002D48460AD1FDF795
:104C700072FAFDF780FA00F007F9FDF77CFA00F010
:104C80000DF9EDE0FDF767FAFDF775FA0123102243
:104C900005EB450100F0F0F8E2E0FFF7E5FB064622
:104CA000FFF71FFC05FB06F1B1FBF0F6F6B2484634
:104CB000FDF751FAFDF75FFA00F0E6F8FDF75BFA51
:104CC00000F0ECF84846FDF746FAFDF754FA0123E8
:104CD000102207EB470100F0CFF87F1CBE42F4D250
:104CE0008CE05046FDF737FAFDF745FA04F1540120
:104CF00000F0DEF8FDF73FFA04F1680100F0C9F8B2
:104D000000F032F9FDF737FA04F1CC0100F0AFF80A
:104D100074E00020FDF71FFAFDF72DFA211D38463B
:104D2000FDF7D3FAFDF727FA00F048F9FDF7CDFAC1
:104D30005046FDF710FAFDF71EFA04F12C0100F0C1
:104D4000B7F8FDF718FA04F1400100F0A2F800F0FE
:104D50000BF9FDF710FA04F1B80114E000F008F9BE
:104D60005046FDF7F8F9FDF706FA04F17C0100F072
:104D70009FF8FDF700FA414600F08BF800F0F4F8D8
:104D8000FDF7F9F9009900F072F8FDF7F4F9C08821
:104D900000EBC00080B2FDF7F2F90020FDF7DBF96F
:104DA000FDF7E9F97622FA2100F090F8FDF7E3F932
:104DB0006F22EB2100F08AF8FDF7DDF96C22DC218F
:104DC00000F084F8FDF7D7F92D22C82100F07EF815
:104DD000FDF7D1F92B22552100F078F8FDF7CBF93A
:104DE0002B460A22B921C08800EBC000083080B2EF
:104DF000FDF735FB02E0BBF5805F31D0FFF7ABFA82
:104E0000C0F1FF00684380B2FF2190FBF1F5EDB2E5
:104E10001F20FDF7A0F9FDF7AEF901230822217844
:104E2000C1F1B90100F04AF8FDF7A5F90123082204
:104E30002178C1F1BA0100F041F800F095F8FDF7D2
:104E40009AF901230822C5F1B90100F037F8FDF7FE
:104E500092F901230822C5F1BA0100F02FF825705C
:104E600000214FF48070BDE8F44FFEF760B9C088B0
:104E7000704380B2FDF729BAC1F59B7189B2C08831
:104E8000C004000CFDF7B5BAC088C004000CFDF7E3
:104E900076B9C0888004000CFDF717BA4FF49673FA
:104EA00010224FF49B71C088C004000CFDF7D7BAE4
:104EB000C08800EB400080B2FDF707BA89B2C08815
:104EC00000EBC0000A3080B2FDF793BAC08800EB57
:104ED000C00080B2FDF7E4B901214FF48070FEF705
:104EE00026B938B5044600F043F8FFF7F5FF00F0A7
:104EF0003BF84FF6FF70FDF75FF92F4D012C04D101
:104F0000FDF739F905F114010BE0022C04D1FDF78E
:104F100032F905F1280104E0032C08D1FDF72BF943
:104F20002946C088C0EBC00080B2FDF7CEF9FDF77E
:104F300022F90FF29401C088C004000CFDF7C5F9F6
:104F4000FDF719F90FF29801C08800EBC00080B29C
:104F5000FDF7BBF900214FF48070FEF7E8F8FBF78E
:104F6000ADF90028FBD031BD4FF47840FDF7F3B820
:104F700010B51F20FDF7F7F80020FDF7ECF84FF60D
:104F8000FF70FDF719F9FDF7F6F80A4C211D002016
:104F9000FDF79BF9FDF7EFF800F010F8BDE81040C1
:104FA000FDF793B90001111100000664FFFF050031
:104FB0000038004010010020CC04002004F118014A
:104FC000C0884004000C704750757368204A6F79A0
:104FD000537469636B20746F202020200000000050
:104FE000657869742E202020202020202020202079
:104FF000202020200000000010B54FF02041426822
:1050000083681A43C3681A4303691A4343691A43FE
:1050100083691A43C3691A43036A1A43436A1A43EA
:10502000836A1A43C36A1A43036B1A43036841F83D
:1050300023208268082A06D1026851F8223043F002
:10504000400341F82230416B0A684B6842EA031280
:105050008B6842EA0322CB6842EA03420B6942EAC8
:1050600003524B6942EA0362896911430268920064
:10507000A2F1C04251600168384AC36AB3F5804F5B
:1050800010D1806B0368446843EA0413846843EAE0
:105090000423046943EA0453446943EA04638069CE
:1050A000184301E06FF0704042F8210010BD30B5A8
:1050B000416882681143C268114302691143426921
:1050C00041EA4221826941EA423141F00801C26964
:1050D0001368546843EA0423946843EA0443D2689B
:1050E00043EA0262036A1C685D6844EA05249D681D
:1050F00044EA0544DB6844EA0363194C006810285D
:1051000003D12160A260E36030BD2162A262E3624C
:1051100030BD4FF02042002952F8201012BF41F05C
:105120000101104B194042F8201070470C4A49B158
:10513000102803D1106840F0040008E0106A40F025
:10514000040008E00849102803D1106808401060E6
:105150007047106A0840106270470000040100A008
:10516000600000A0FEFF0F00FBFF0F0001684FF67C
:10517000FE72114001600021016041608160C160E8
:105180004049414A90421DD0404A904221D0404A75
:10519000904225D03F4A904229D03F4A90422DD09C
:1051A0003E4A904203D1086840F4700029E03C4A2E
:1051B000904203D1086840F0706022E039493A4AD1
:1051C000904203D1086840F00F001AE0374A90423D
:1051D00003D1086840F0F00013E0354A904203D153
:1051E000086840F470600CE0324A904203D10868CD
:1051F00040F4704005E0304A904203D1086840F422
:1052000070200860704702686FF30E128B681A43B3
:105210000B6A1A430B691A434B691A438B691A4389
:10522000CB691A434B6A1A438B6A1A430260CA68F5
:1052300042600A6882604968C1607047002901685D
:1052400012BF41F001014FF6FE721140016070473C
:10525000002A026814BF114322EA0101016070476D
:105260000021C2004CBF154A154A1268024218BFFD
:10527000012108467047C1004CBF0A490149086036
:105280007047000004000240080002401C00024079
:105290003000024044000240580002406C000240CE
:1052A0008000024004040240080402401C04024042
:1052B000300402404404024058040240000402400A
:1052C0000000024080B501214FF08050FDF741FF02
:1052D000012003F078F90120BDE80240FDF757BF37
:1052E00080B54FF48030FDF790FEFDF7A7FE012852
:1052F0000DD1FDF7BBFE3920FDF74CFF0028FAD099
:105300000220FDF7B6FEFDF7BBFE0828FBD101BD6C
:105310002DE9FE43DFF8A8760020386000F090F910
:1053200000F008FA2046FCF716FF00F006FAFAF73C
:10533000C5FF0028FBD18DF808004FF48076019658
:105340000C208DF80900012000F0ABF817208DF833
:10535000000001208DF8010000F0A8F8FCF70BFF19
:1053600000F0E1F9FCF707FF00F0CDF9FCF703FFCF
:1053700006250FF2A46100F08FF8FCF7FCFE00F0A8
:10538000CAF9FCF7F8FE00F09BFAFAF797FF01283C
:10539000FBD1FAF793FF0028FBD1FCF7ECFEC088A5
:1053A000C0EBC00080B2FCF7EAFEFCF7E4FE00F0C0
:1053B00036F9FCF7E0FE00F0A0F9FCF7DCFE0FF296
:1053C000A06100F038F9FCF7D6FE0FF2AC6100F0F6
:1053D0009CF9FCF7D0FE0FF2B86100F05DF80220F6
:1053E00003F067F900F077FADFF8D80504210160CF
:1053F0000121012003F0EAF800F0BDFA00208DF849
:10540000080001960C208DF80900002000F049F8F2
:1054100017208DF8000002208DF80100012000F017
:1054200045F8FFF75DFFFAF749FF0028FBD10FF2BF
:10543000C0660FF2A4680FF27069386848B1FCF7D3
:105440009AFE494600F0F7F8FCF795FE0FF27061FE
:1054500008E0FCF790FE494600F0EDF8FCF78BFE03
:105460000FF2A46100F051F9FCF785FE414600F00F
:1054700013F8FCF780FE314600F04FF9FAF71EFFF3
:105480000028FBD02046FCF797FEFAF75EFE0120CD
:10549000FDF7D0FBBDE8F783C088684380B2FCF716
:1054A00014BF8DF80A0001A8FEF728B98DF8020094
:1054B0008DF8030000A8FEF7E0B82DE9F04100F0F8
:1054C000BFF800F037F92046FCF745FE00F035F94B
:1054D000FAF7F4FE0028FBD10FF214650FF2F8582A
:1054E0000627042003F009F94AF2A55188422AD080
:1054F000FCF741FE00F0C0F9FCF73DFE00F0CBF9EF
:10550000FCF739FE00F0D4F9FCF735FE00F091F815
:10551000FCF731FE0FF2686100F0F7F8FCF72BFEA4
:105520000FF2746100F080F8FCF725FE414600F0B0
:10553000F4F8FCF720FE294600F0C4F9FAF7BEFEA5
:105540000028FBD061E0FCF716FE00F0ECF8FCF759
:1055500012FE00F0D8F8FCF70EFE0FF2BC4100F08E
:1055600063F8FCF708FE00F0D6F8FCF704FE00F044
:10557000A7F9FAF7A3FE0128FBD1FAF79FFE00284E
:10558000FBD12046FCF718FE03F055F80646B1B2F1
:10559000182003F0A6F8310C1C2003F0A2F801F04B
:1055A000BFFBFCF7E8FD00F03AF8FCF7E4FD0FF272
:1055B000B04100F039F8FCF7DEFD0FF2F45100F0D5
:1055C000ACF800F088F90121012002F0FFFF00F0A3
:1055D000D2F9FFF785FEFCF7CEFD0FF2CC4100F0CB
:1055E0002AF8FCF7C8FD0FF2D84100F08EF8FCF75E
:1055F000C2FD414600F018F8FCF7BDFD294600F059
:105600008CF8FAF75BFE0028FBD02046FCF7D4FDAF
:10561000FAF79BFD0120BDE8F041FDF70BBBC08808
:10562000C004000CFCF7ABBDC088784380B2FCF727
:105630004CBE0FF23451C0888004000CFCF745BE0C
:105640004FF6FF742046FCF7B7BD10B5FFF7F8FF23
:1056500000F070F82046FCF77EFD00F06EF8FAF7D7
:105660002DFE0028FBD1FCF786FD00F05CF8FCF76E
:1056700082FD0FF2545100F048F8FCF77CFD06243F
:1056800000F034F8FCF777FD0FF26C5100F045F8AC
:10569000FCF771FD0FF2785100F014F9FAF70EFEE5
:1056A0000128FBD1FAF70AFE0028FBD1FCF763FDC5
:1056B00000F0ECF8FCF75FFD00F0F4F8FCF75BFDA0
:1056C00000F0DFF8FCF757FD00F017F8FCF753FD8A
:1056D0000FF2545100F021F8FCF74DFD0FF260512C
:1056E00000F0F0F8BDE8104002F084BF0FF2F04186
:1056F000C088604380B2FCF7E8BDC08800EBC00002
:1057000080B2FCF73CBD0FF2F821C08800EB8000AE
:1057100080B2FCF7DABD0FF21831C088C0EBC000D0
:1057200080B2FCF7D2BD0FF2C021C0888004000C0B
:10573000FCF7CBBD1F20FCF716BD0020FDF77ABAA1
:1057400038B54FF6FF752846FCF736FDFFF7F2FF38
:105750002846FCF700FDFFF7F0FFFAF7AFFD002841
:10576000FBD10624042002F0C8FF4AF2A55188426A
:1057700035D0FCF700FD00F07FF8FCF7FCFC00F0F2
:105780008AF8FCF7F8FC00F093F8FCF7F4FCFFF75C
:1057900050FFFCF7F0FC0FF2E831FFF7B6FFFCF723
:1057A000EAFC0FF2F431FFF7A3FFFCF7E4FC0FF281
:1057B0002831FFF7B2FFFCF7DEFC0FF2343100F0C6
:1057C00081F8FAF77BFD0028FBD02846FCF7F4FCB3
:1057D000FAF7BBFC0120BDE83240FDF72BBAFCF71D
:1057E000CAFCFFF7A0FFFCF7C6FC0FF2DC31FFF7A5
:1057F0008CFFFCF7C0FCFFF779FFFCF7BCFC0FF255
:10580000F831FFF78AFFFCF7B6FC00F059F8FAF719
:1058100055FD0128FBD1FAF751FD0028FBD1FCF71B
:10582000AAFC00F033F8FCF7A6FC00F03BF8FCF70C
:10583000A2FC00F026F8FCF79EFCFFF75EFF02F0EA
:10584000FAFE0446A1B2182002F04BFF210C1C20E6
:1058500002F047FF01F064FAFCF78DFC0FF2C8314B
:10586000FFF75BFFFCF787FC0FF2443100F02AF8EA
:10587000BDE8314002F0BEBE0FF2A421C088FCF7A3
:1058800024BDC088604380B2FCF779BCC088800426
:10589000000CFCF774BC0FF2A021C0884004000C7F
:1058A000FCF713BDC08800EB800080B2FCF767BC3A
:1058B0000FF29C21C08800EB400080B2FCF705BDD0
:1058C0000FF28411C088C004000CFCF7FEBC3C48F9
:1058D0000121016070472DE9F8433B493B480268CC
:1058E0000A6042684A603A4C22688A606268CA600C
:1058F000384D2A680A616A684A61374E32688A619F
:105900007268CA61354F3A680A627A684A62DFF89B
:10591000D080D8F800208A62D8F80420CA62DFF864
:10592000C490D9F800200A63D9F804204A634FF6DE
:10593000FF71ADF8001000218DF8031000A9FDF7EC
:1059400017F800A92046FDF713F800A92846FDF72F
:105950000FF800A93046FDF70BF800A93846FDF70F
:1059600007F800A94046FDF703F800A94846FCF7F0
:10597000FFFFBDE8F1831549134802680A604268D9
:105980004A60134982680A60C2684A601149026924
:105990000A6042694A60104982690A60C2694A60C5
:1059A0000E49026A0A60426A4A600D49826A0A60C8
:1059B000C26A4A600B49026B0A60406B48607047DC
:1059C000EC17002004200140801600200008014050
:1059D000000C01400010014000140140001801407B
:1059E000001C0140002001405479706963616C2003
:1059F00063757272656E7420202020200000000004
:105A0000636F6E73756D7074696F6E20696E20536D
:105A1000544F5020000000006D6F6465207769745A
:105A200068206C6F7720706F77657220000000002F
:105A3000726567756C61746F722069733A203235D4
:105A40002075412000000000506573732053454CC1
:105A500020746F20636F6E74696E756500000000BE
:105A600020204D435520696E2053544F50204D6FD8
:105A70006465202000000000546F20657869742060
:105A80007072657373204B65792020200000000040
:105A90007075736820627574746F6E2020202020EA
:105AA000202020200000000020202020202053540F
:105AB0004F50204D6F646520202020200000000002
:105AC00057616B652D5570206279205254432041F7
:105AD0006C61726D000000005072657373204A6F34
