:020000040800F2
:10000000501C002045E5000811C00008F3C100089D
:10001000F5C10008F7C10008F9C1000800000000A0
:10002000000000000000000000000000FBC100080C
:10003000FDC1000800000000FFC1000801C2000867
:100040008DE5000891E5000895E5000805C2000867
:100050009DE50008A1E50008A5E50008A9E5000860
:10006000ADE500086BC20008B5E50008B9E5000879
:10007000BDE50008C1E50008C5E50008C9E50008C0
:10008000CDE50008D1E50008D5E5000885C20008E7
:1000900089C20008E1E50008E5E500088DC2000816
:1000A000EDE50008F9C20008F5E50008F9E50008EB
:1000B000FDE5000801E6000805E6000809E600087D
:1000C0000DE6000811E6000815E6000819E600082C
:1000D000ABC3000821E6000825E60008C3C30008FA
:1000E00045C4000863C4000835E6000839E6000886
:1000F0003DE6000841E6000845E6000849E600083C
:100100004DE600089DC4000855E6000859E60008C1
:100110005DE6000861E6000865E6000869E600089B
:100120006DE6000871E6000875E6000879E600084B
:10013000DFF8EC0A427800F1C40100EB82020162B0
:10014000116100F1240181607047F8B5002600F0CC
:100150001BFC4FF6FF7500F08AF801F095F9DFF807
:10016000C04A206A01F0A5FA1827284601F0F5FFD9
:1001700000F00BFA07E0406831010958B8B202F00C
:10018000A1F8761C1837206A017A8E42F3D34FF417
:10019000FC6001F0E2FF00F06AF800F053F8401C48
:1001A0001822A1605043BDE8F440096880B202F013
:1001B00089B810B5DFF8684AA068E060C16879B115
:1001C00000212170C06820624068A060FFF7BDFF79
:1001D0006078216A401C6070C0B204EB800001614D
:1001E000E0684068BDE81040004770B500F042F894
:1001F00000F0CBF900F02CF8207808B9206A007ADA
:10020000401E0BE070B500F035F800F0BEF900F0CC
:100210001FF800F0B4F9ACBF0020401C20704FF470
:10022000FC6001F09AFF00F022F800F00BF8A160EA
:10023000401C0968704300F00FFD607821780019B8
:10024000017170BD216A2078496801EB0011704787
:10025000DFF8CC492078216A496801EB0011A160E0
:100260001826401C0968704380B202F02BB828465B
:1002700001F06BBF4FF6FF75284601F06EBF10B559
:10028000DFF89C49A06880688047607808B9012041
:1002900060700022607804EB8001C96821624968BF
:1002A000A1600119401E0A7160702270C0B200285E
:1002B0001CBFBDE81040FFF748BFBDE810406CE030
:1002C00080B5032002F0DFF930B9032002F0DBF93A
:1002D0000028FAD0022002BD042002F0D4F930B97F
:1002E000042002F0D0F90028FAD0032002BD052036
:1002F00002F0C9F930B9052002F0C5F90028FAD09A
:10030000042002BD062002F0BEF930B9062002F03A
:10031000BAF90028FAD0052002BD072002F0B3F98F
:1003200030B9072002F0AFF90028FAD0012002BD51
:10033000022002F0A8F930B9022002F0A4F9002846
:10034000FAD0062002BD002002BD70472DE9F0471B
:100350004FF491780024622547460326DFF88C9EEF
:100360004FF0040A00F0B8FF40234022B9B2A8B20F
:1003700001F0CAFF00F04CFB59F8240000F007FB25
:10038000413F641C0A2C06D0BAF1010AEAD141357A
:100390004746761EE4D1BDE8F0870FF290112DE9B3
:1003A000F0418CB0002700A8302202F05DFA00F086
:1003B0005CFCFFF785FF0028FBD1FFF7B9FEDFF8F3
:1003C000604827704FF6FF7800F049FC00F0DCFA37
:1003D00000F048FC01F0C9FE01F06AF9404601F066
:1003E000BCFE00F0D2F8FFF7B1FF00F075FF01F09E
:1003F000F4FF00AEBDF80000718800F0B2F84FF4D1
:100400000051DFF8EC0D02F015FB0028F7D0FFF7E4
:1004100057FF00A901EB870504282DD100F022FC2D
:1004200000F09CF8042F04D208370A2F02D30927C2
:1004300000E03F1F00F0A9F800F097F800F0A4FAE0
:1004400000F010FC2078042805DA0830C0B20A2831
:1004500002DB092000E0001F2070216A2078496833
:1004600001EB0010A06001F080FE01F021F960783E
:10047000217800190171CAE705281AD100F0F2FBB2
:1004800000F06CF8082F28BF083F03D23F1D0A2F49
:1004900028BF092700F079F800F067F800F074FA37
:1004A00000F0E0FB20780828A8BF0838D4DA001D47
:1004B000CCE7032817D100F0D5FB00F04FF8002F50
:1004C0000CBF09277F1E00F060F800F04EF800F026
:1004D0005BFA00F0C7FB2078002803BF206A007A8F
:1004E000401E401EB8E7022815D100F0BBFB00F00B
:1004F00035F8092F0CBF00277F1C00F046F800F0EC
:1005000034F800F041FA00F0ADFB00F038F8ACBF71
:100510000020401CA0E70128ADD1FFF74AFE0120D2
:1005200002F0A2FB0CB0BDE8F08100002200220125
:100530002200E1002200A00022005F0063002201EF
:100540006300E1006300A00063005F00A4002201DB
:10055000A400E100A400A000A4005F00698836F8B0
:1005600027004123402201F086BF00A800EB87004E
:100570004123418836F82700402201F07CBF216AE0
:100580002078097A491E884270471F2001F0DDBD9E
:100590002DE9F04F00F035FADFF8548C85B0206873
:1005A0000490606803902868029068680190306841
:1005B00000904FF6FF707768D8F80090D8F804A044
:1005C00001F0CBFDFFF7E1FF40F23F1B4FF4A073BA
:1005D000F022594600F07DFEDFF8DC0C00F0D7F980
:1005E000642002F08AFB4FF4A073F022594600F019
:1005F00070FEDFF8540E00F0CAF9642002F07DFBB3
:100600000498206001210398606002982860019896
:100610006860009830607760C8F80090C8F804A05F
:1006200005B0BDE8F04F4FF4807002F09CBD10B5EE
:1006300000F01BFBFFF744FE0028FBD100F04CFE4E
:1006400000F042FEDFF8040E00F0A1F9FFF738FEDB
:100650000028FBD1FFF734FE0028FBD000F03CFE61
:1006600000F092F900F0D0F801F07FFD0FF2A80140
:1006700001F020F801F079FDC0880FF2B40101F01B
:1006800021FE01F072FDC0880FF2BC0101F00CF8F0
:1006900001F06BFDC0880FF2C80100EB400000F0D4
:1006A000DBFA01F062FDC0880FF2CC01800400F09B
:1006B000FCFF01F05AFDC0880FF2D40100F0CAFA25
:1006C00001F053FDC0880FF2E0010622504300F014
:1006D000C3FA01F04AFDC0880FF2E401C0EBC0008C
:1006E00000F0BAFA01F041FDC0880FF2EC01C0043D
:1006F00000F0DBFF01F039FDC0880FF2F40100EBE0
:10070000C00000F0A9FA00F083F9FFF7D9FD002836
:10071000FBD000F0E1FDD9E055502C20444F574E5E
:100720002C20524947485420616E6420000000008C
:100730004C45465420707573682D627574746F6EE5
:100740007320202000000000706572666F726D20BB
:1007500063697263756C61722020202000000000C4
:100760006E617669676174696F6E20696E20746866
:1007700065202020000000006D61696E206D656EAF
:10078000752C2063757272656E7420200000000065
:100790006D656E75206974656D732E2053454C2010
:1007A0002020202000000000707573682D62757491
:1007B000746F6E2073656C656374732000000000B5
:1007C0007468652063757272656E74206974656DF6
:1007D0002E20555000000000616E6420444F574E9B
:1007E00020706572666F726D20202020000000006E
:1007F000766572746963616C206E61766967617495
:10080000696F6E2E000000004FF6FF74204601F065
:100810009CBC10B500F065FD00F027FAFFF750FD15
:100820000028FBD100F0B0F8FFF7F0FF01F09DFCCD
:10083000002001F09EFC01F098FCC0880FF2A0019E
:1008400001F040FD01F091FCC0880FF2AC0100F016
:100850002BFF01F08AFCC0880FF2B40100EB4000CE
:1008600000F0FAF901F081FCC0888004000C01F06E
:1008700080FC01F07AFCC0880FF2AC0100F0EAF9CC
:1008800001F073FCC0880FF2B8010622504300F05B
:10089000E3F901F06AFCC0880FF2BC01C0EBC000B4
:1008A00000F0DAF901F061FCC088C004000C01F02E
:1008B00060FC01F05AFCC0880FF2B40100EBC000EC
:1008C00000F0CAF9FFF7FCFC0028FBD000F00BFD9C
:1008D000FFF73BFCBDE81040012002F0C5B9000065
:1008E00020202053544D33323130452D4556414C54
:1008F000202020200000000020202044656D6F6E25
:100900007374726174696F6E2020202000000000F3
:1009100020202056657273696F6E20322E312E3082
:1009200020202020000000004D4344204170706CC6
:1009300069636174696F6E205465616D0000000029
:10094000202020434F5059524947485420323031DB
:1009500033202020000000002053544D6963726F43
:10096000656C656374726F6E6963732000000000CC
:1009700020207777772E73742E636F6D2F73746DCD
:1009800033322020000000001F2001F0E6BB2DE9DB
:10099000F14F00F036F8DFF8589884B020680390E3
:1009A00001216068029028680190686800904FF407
:1009B00080703768D6F80480D9F800A0D9F804B060
:1009C00002F0D1FB02F048FCDFF8200E02F0C5FC7B
:1009D00002F0D6FC049801F06EFD00F019F80398BF
:1009E0002060029860600198286000986860376015
:1009F000C6F80480C9F800A0C9F804B005B0BDE885
:100A0000F08FDFF8EC4DDFF8EC5DDFF8646E7047D7
:100A100000214FF4807002F0A6BB2DE9F041FFF7F2
:100A20004FFC0028FBD1FFF7F3FF02F0BDFC4FF6AF
:100A3000FF7802F015FD012840F0D38000F015F991
:100A400000F04AFC00F00BF940234022BE21962022
:100A500001F05AFCDFF8A00DFFF799FF00F03CFC15
:100A600001F0BBFC4FF4784001F077FB00F0FAF89E
:100A700001F07BFBC0880FF2AC1100F015FEFFF710
:100A800083FF4FF4FC6001F060FBFFF7C1FFDFF86C
:100A9000EC5DFFF715FC0028FBD102F085FC02F0AD
:100AA00018FD8000286300F017FC286B05F2050292
:100AB000B0F5806F03D22B206871107605E02D21F0
:100AC000C0F500606971117628634FF47A77296B5D
:100AD00001F007007843C0086423B0FBF3F303F18F
:100AE00030065671C908642606FB130C0A23BCFBAA
:100AF000F3FE0EF13003937107FB01000A2303FBA1
:100B00001ECC0CF13004D471B446B1FBFCFC29635B
:100B10000CF13004547006FB1C1C9E46BCFBFEFE10
:100B20000EF13004947003FB1ECC00EBC0000521D5
:100B30000CF13004B0FBF1F0D47000F5FA40DFF8AE
:100B4000401DB0FBF1F101F130045476BC46DFF8F2
:100B5000304D04FB110142F21070B1FBF0F000F1D6
:100B60003004947642F2107404FB1010B0FBFCFCCD
:100B70000CF1300107FB1C0C6427BCFBF7F707F1F5
:100B8000300006FB17C61F465077B6FBF7F703FB8E
:100B9000176307F130003033D1769077D377002692
:100BA00001F0E3FAC088725D40F23F11A1EB061735
:100BB000C0EBC000B9B280B201F06FFB01F0D5FA12
:100BC0007119C0880A7EC004B9B2000C01F065FB3F
:100BD000761C142EE4D3FFF71BFFFFF771FBB0B9AF
:100BE0005BE700F03CF801F0C0FAC0880FF24C015E
:100BF00000F05AFD01F0B9FAC0880FF66C0100EB65
:100C0000400000F029F8FFF75BFB0028FBD000F064
:100C100063FB00F024F8FFF798FABDE8F0415BE6CB
:100C2000F0010020202020202054656D7065726145
:100C3000747572652020202000000000204E6F2077
:100C40005453454E534F522050726573656E742055
:100C50000000000000EB800080B201F033BB404692
:100C600001F0A4BA404601F070BA002001F0FCBFC8
:100C70002DE9F04FB1B005208DF80C004FF6FF794B
:100C8000484601F093FAFFF7F0FFFFF719FB002841
:100C9000FBD1642112A802F0FDFC142106A802F089
:100CA000F9FCDFF8E05BA88B4FF2FF710840A883E6
:100CB0004FF6FB7128880840288000214FF48040BF
:100CC00002F063FA0121912002F056FA00F07FFA57
:100CD00000F05EFA802000F070FA402000F06DFA1B
:100CE000DFF8A40B4FF40001016017208DF800001D
:100CF00000208DF801008DF8020001208DF803001E
:100D000000A802F0D4FC27208DF8000001208DF807
:100D1000010000A802F0CBFC0721022001F09AFE9E
:100D2000802002F04AFD00208DF8140008208DF884
:100D300015008020049001208DF8160004A802F010
:100D4000F7FCDFF8486B01207060FFF71DFE484696
:100D500001F0FBF901F009FAC0880FF2483101F007
:100D6000B1FA01F002FAC0880FF2503100F09CFC99
:100D700001E0012806D0FFF7A3FA31680029F8D076
:100D8000012809D101F0F1F900F084FC01F0EDF93E
:100D9000C088DFF8FC1A39E001F0E7F9C0880FF2EB
:100DA000343101F08FFA01F0E0F9C0880FF23C31E4
:100DB00000F07AFC00208DF80C000B908DF83000CC
:100DC000FF242BAA0BA903A802F000FD9DF80C003C
:100DD000641E042802D0002CF3D101E0002C37D18E
:100DE00001F0C3F9C0880FF21C3101F06BFA01F079
:100DF000BCF9C0880FF2243100F056FC01F0B5F9BF
:100E0000C0880FF2303100EB400080B201F05AFA96
:100E100001F0ABF9C0880FF24C31800400F045FCC2
:100E200001F0A3F9C0880FF65401FFF713FFFFF795
:100E300047FA0028FBD0DFF85C0A02F069FF00F0F7
:100E4000E9F900F0ECF90721062001F003FE12E1B8
:100E500001F08BF9C0880FF6642101F033FA01F03C
:100E600084F9C0880FF66C2100F01EFC01F07DF9BA
:100E7000C0880FF2D82100EB4000FFF7EDFE01F033
:100E800074F9C0880FF2DC21FFF7E4FE01F06DF980
:100E9000C0880FF6582106225043FFF7DDFEFFF70A
:100EA0000FFA0028FBD0484601F080F9FFF76CFDEF
:100EB000484601F04AF901F058F90FF6482100F0D0
:100EC000F9FB00F0B5F900F0DBFA01F04EF900F0A3
:100ED000E1FBDFF8C4B99BF801309BF800200FF666
:100EE0003C2106A803F044F801F03FF9C08806A9A8
:100EF00001F0E8F90FF63C2106A803F039F801F0FB
:100F000034F9C088400406A900F03FF900F090F9D8
:100F1000FFF73BFB00240DF1480805E000F072F9F3
:100F200000F03BF900F02AF99BF82A0000EB4000A2
:100F30008442F3D301F019F9C08800EB400012A9F4
:100F400000F038F99BF82A000290082810DB1524DD
:100F500005E000F057F900F020F900F00FF900F07B
:100F600022F9F6D301F001F9C088800400F00BF9F2
:100F70009BF82A0002900F2811DB2A2405E000F0DC
:100F800041F900F00AF900F0F9F800F00CF9F6D395
:100F900001F0EBF8C08800EB800000F009F900F0E8
:100FA00047F900F06DFA0FF6A41106A802F0E0FF71
:100FB00001F0DBF8C0880622504306A900F0FAF8D9
:100FC00000F036F9FFF7E1FA002405E000F012F92D
:100FD00000F0E3F800F0D2F89BF82B0000EB4000A3
:100FE0008442F3D301F0C1F8C088C0EBC00012A95D
:100FF00000F0E0F89BF82B000290082810DB152485
:1010000005E000F0F7F800F0C8F800F0B7F800F0DD
:10101000CAF8F6D301F0A9F8C088C00400F0B3F80C
:101020009BF82B0002900F2811DB2A2405E000F02A
:10103000E1F800F0B2F800F0A1F800F0B4F8F6D34F
:1010400001F093F8C08800EBC00000F0B1F8FFF7A2
:1010500037F90028FBD0DFF83C0802F059FE00F019
:10106000D9F800F0DCF80721062001F0F3FC00F0CD
:10107000AEF800F08DF80020306070600121A88B80
:1010800040F40060A8834FF4804002F07EF84846A8
:1010900001F08CF8FFF759F8012001F0E5FD31B0BF
:1010A000BDE8F08F20506C6561736520496E7365F3
:1010B00072742043617264200000000050726573F6
:1010C000732053454C20746F20657869742E20205E
:1010D000000000002020204361726420496E736587
:1010E000727465642020202000000000202020442D
:1010F00065636F64696E67204154522E2E2E202046
:10110000000000004E6F6E20737570706F72746512
:101110006420436172642020000000004F6E6C79EF
:101120002049534F373831362D332054203D20305D
:101130000000000063617264732061726520737542
:1011400070706F727465642E0000000050726F74CE
:101150006F636F6C2054203D203020202020202001
:101160000000000050757368204A6F7953746963FA
:101170006B20746F20202020000000007870E41C99
:101180002020B87070470DF15D01000C01F09AB895
:10119000DFF80807402101F054BC04F8080012A849
:1011A0002718504652E3029800EB400084427047F3
:1011B0000DF1720180B201F085B8ADF8040001A90B
:1011C00004208DF80700DFF8D40601F0D6BB4020DC
:1011D000ADF8040001A910208DF8070003208DF858
:1011E0000600DFF8B80601F0C8BB0000901A00083E
:1011F000002001400320B4FBF0F0584490F816A002
:1012000050462BE30320B4FBF0F0584490F802A0C2
:10121000504623E300214FF4802001F0B6BF272081
:101220008DF8000000208DF8030000A802F03FBAFE
:10123000484600F092BF1CB500200090019001F0DC
:1012400013FDFFF73DF80028FBD100F03DF80098B2
:10125000DFF84C4600F032F812E0009800F02EF86B
:10126000062001F04AFD0098322804BF00200090BB
:10127000FFF726F801900198012804BF3220009062
:1012800000983228E9D300F027F8002000F065FF2D
:10129000FFF7BAFA00F027F800F067FF00F0DEF879
:1012A000FFF70EF80028FBD000F01DF8FEF74DFF09
:1012B000BDE81640FFF710BBFAFBF764411C009134
:1012C00054F82000FFF763BB4FF4A073F02240F204
:1012D0003F11EF2001F018B801214FF4807001F0A8
:1012E00042BF4FF6FF74204600F060BF70B588B073
:1012F00000200090029001A91020ADF80400002009
:101300008DF80700DFF8940501F037FBFFF7ADFC1F
:10131000FEF7D6FF0028FBD101214FF4007001F049
:101320002BFF0020039001208DF810008DF8110094
:101330004FF4602005900020069001208DF81C00DD
:1013400003A9DFF86045204602F02CFE05230122A8
:101350000E21204602F056FE0121204602F040FEFA
:101360000121204602F045FE4FF6FF7500F08CF893
:1013700000F086F800F0F9FEC0880FF2E851800412
:1013800000F093F900F0F1FEC0880FF2F051FFF782
:1013900061FC00F0EAFEC0880FF2F85106225043CB
:1013A000FFF75AFC00F0E1FEC0880FF20061C0EBCD
:1013B000C000FFF751FC00F0D8FEC0880FF20461B6
:1013C000C00400F072F9FEF77BFF0128FBD1FFF7A4
:1013D0007BFF00980FF2E46600F03AF817E00098FF
:1013E00000F036F8204602F049FE0A2190FBF1F0A9
:1013F00001F083FC00980E2804BF00200090FEF747
:101400005FFF02900298012804BF0E200090009810
:101410000E28E4D3FFF760FF002000F09EFEFEF7E9
:1014200026FF00F031F800F0A0FE00F017F8FEF7FC
:1014300047FF0028FBD000F027F8FEF786FE0120CA
:1014400001F012FC08B070BD5E28D7643C54FA6409
:10145000411C009156F82000FFF799BAC0880FF29E
:10146000080100F02FBF0000457869743A20205031
:10147000757368204A6F79537469636B00000000CC
:101480004FF4784000F061BE284600F08FBE2DE991
:10149000F04184B0002000900190029001F0E4FB44
:1014A000FEF70EFF0028FBD1FFF71BFFFFF76CFADA
:1014B000FFF7ACF903F03EF80290029801281CBF38
:1014C0000298022805D1029803F044FDFFF704FFBB
:1014D000CBE0FFF701FF00F048FE002000F049FEDE
:1014E00000F043FEC0880FF2F44100F0EBFE00F084
:1014F0003CFE00F0CFF800F038FEC08800EB400062
:1015000080B200F036FE00F030FEC0880FF2E441F9
:10151000800400F0CAF800F028FEC0880FF2EC4109
:10152000FFF798FB00F021FEC0880FF2F841062279
:101530005043FFF791FB00F018FEC0880FF2FC410A
:10154000C0EBC000FFF788FB00F00FFEC0880FF271
:101550000451C00400F0A9F800F007FEC0880FF2A3
:101560001C1100EBC000FFF777FBFEF7A9FE012876
:10157000FBD1FEF7A5FE0028FBD10FF2785500F055
:101580008EF8C949012002F0CDFE0FF2A0560FF2ED
:101590002C58C64F0EE0009808B901200090009822
:1015A000401E009002F026FE00F079F802F07AFF6B
:1015B00002F014FE00980E2837D202F01BFEFFF74F
:1015C0008BFEFFF781FE009858F82000FFF7DFF947
:1015D00002F068FF02F002FE0020B860009856F8A2
:1015E000200001F09EFB019001980328D3D00198C0
:1015F000022807D100980D2804BF0F200090009802
:10160000401CCEE70198012804D102F00DFE0F2006
:101610000090CFE701980028CCD10098401C0090A2
:1016200055F8200002F042FFC4E738684008400047
:1016300038600020B86002F0F7FDFFF74DFE002093
:1016400000F0B4FD002000F088FDFFF7DFF800F0A7
:101650008CFD0FF2184100F02DF800F086FDFFF729
:10166000FDFEFEF72DFE0028FBD0FFF73CFEFEF747
:101670006CFD04B0BDE8F041FFF72EB965786974E0
:101680002E2020202020202020202020202020204C
:1016900000000000C0884004000C00F06ABD009803
:1016A00055F8200002F002BF4004000C00F00ABE12
:1016B000A0680168002000F005BE2DE9F04F8DB054
:1016C0000FF2C0314B4E6A4FDFF8E4812CC909A8F4
:1016D00000242CC0464D28680890012168680790B6
:1016E00030680690706805903868049078680390B8
:1016F000D8F8000002904FF48070D8F8049001F000
:1017000032FD01F0A9FDDFF8E4A0504601F025FE0E
:1017100001F036FE0DF1000B0094ABF804400FF21F
:101720009C3000F07EF8FFF7D7FD00F075F8002838
:101730003BD100F063F80E2CF1D306225D4900F096
:1017400073F8FFF7C9FD00F067F800282DD100F00D
:1017500056F80622584900F067F8FFF7BDFD00F083
:101760005BF8002821D100F04AF800240FF2203065
:1017700000F057F8FFF7B0FD05220AF1100100F064
:101780004EF890B900F03AF8082CEFD3002409A8DD
:10179000062250F8241000F047F8FFF79DFD0522BF
:1017A0000AF1180100F03BF808B101201AE000F03E
:1017B00025F8032CEBD3089828600121079868606E
:1017C00006983060059870600498386003987860D7
:1017D0000298C8F80000C8F804904FF4807001F037
:1017E000C2FC00200DB0BDE8F08F000020080020F2
:1017F00000140140001801404C8EFD64641C8DF8FB
:1018000000008BF801008BF802008BF803008BF8C6
:1018100004008BF80500704705220AF1080100A8B2
:1018200005E050F82410062200A803F0DBB810B53C
:1018300013465A1E9BB23BB110F8013B11F8014B05
:10184000A342F5D0012010BD002010BD00F00F0014
:101850000A28B4BF30303730C0B2704700090A28B8
:10186000B4BF30303730C0B2704708484068704766
:10187000001C01400548012101607047A8050020B7
:10188000A08601000038004080E200E0F817002048
:10189000D0D20008004800401C1600200010014073
:1018A000C0020020002401400000066410E000E0B7
:1018B00000200140FAFBF7643C54FA64536D6172F6
:1018C0007420636172642049534F373831362D33A9
:1018D00000000000636F6D70617469626C652E209A
:1018E000202020202020202000000000636F6E7444
:1018F000696E75652E2020202020202020202020A9
:1019000000000000202020204465636F646564208F
:101910004154522020202020000000005453203D3C
:1019200020307825782C205430203D2030782578C0
:101930000000000053657475702043686172616334
:1019400074657273203A20200000000048697374A7
:101950006F726963616C2043686172616374657260
:10196000730000005475726E2074686520547269AB
:101970006D6D65722052563100000000746F206357
:101980006F6E74726F6C207468652064656C617929
:10199000000000006265747765656E2074776F20C3
:1019A0006672616D65732E200000000050757368CB
:1019B000204A6F79537469636B2053454C20746FD0
:1019C000000000007374617274206F722073746F72
:1019D000702E202020202020000000002050726562
:1019E00073732053454C20746F207374617274209C
:1019F00000000000205768656E2070726573656E88
:101A0000746174696F6E202000000000737461724D
:101A10007473207573652052494748542020202054
:101A200000000000616E64204C45465420746F2015
:101A3000676F20746F20202000000000746865200C
:101A40006E6578742F70726576696F7573202020CB
:101A500000000000736C69646520616E642053456A
:101A60004C20746F20202020000000002020456EB4
:101A700064206F6620736C6964652073686F7720DB
:101A800000000000968FFE64540FFE64D80FFF64C0
:101A90007EACFC64C0CCFC6402EDFC64440DFD64CF
:101AA000862DFD64C84DFD640A6EFD644C8EFD6498
:101AB0008EAEFD64D0CEFD6412EFFD645E28D76467
:101AC000A080D964E2D8DB642431DE646689E064F6
:101AD000A8E1E264EA39E5642C92E7646EEAE9641D
:101AE000B042EC64F29AEE6434F3F064764BF36443
:101AF000B8A3F5640000000066A106001C340D00C8
:101B00004E240F0002071500549D200000B426004B
:101B1000AAB62E00F04B370078973B0032AF430057
:101B2000006049000018520040AC570074090000E2
:101B3000280A000020030000600900007512000060
:101B400034080000E40C0000AC0D0000400600006A
:101B5000E40C000074090000480D0000E3080000D8
:101B6000860600004CF23370ADF8000000A9704703
:101B70002DE9F04100F0E7FC00F010FD00F0DBFC87
:101B80004FF0D84000210180DFF898494188A180BA
:101B9000A188472940F0F1800021EA2000F0C4FC30
:101BA0002021EB2000F0C0FC0C21EC2000F0BCFC5C
:101BB000C421ED2000F0B8FC4021E82000F0B4FC86
:101BC0003821E92000F0B0FC0121F12000F0ACFC4C
:101BD0001021F22000F0A8FCA321272000F0A4FC93
:101BE0000121402000F0A0FC0021412000F09CFCDD
:101BF0000021422000F098FC1021432000F094FCCA
:101C00000E21442000F090FC2421452000F08CFCA3
:101C10000421462000F088FC5021472000F084FC7D
:101C20000221482000F080FC1321492000F07CFCB8
:101C300019214A2000F078FC19214B2000F074FC97
:101C400016214C2000F070FC1B2100F0BEFB31215E
:101C500000F0B8FB2F2100F0B2FB3F2100F0ACFBFD
:101C60003F21542000F060FC3E21552000F05CFC38
:101C70002F21562000F058FC7B21572000F054FC07
:101C80000921582000F050FC0621592000F04CFC9E
:101C900006215A2000F048FC0C215B2000F044FC97
:101CA0001D215C2000F040FCCC215D2000F03CFCBC
:101CB0001B211B2000F038FC01211A2000F034FC0D
:101CC0002F21242000F030FC5721252000F02CFC8F
:101CD0008621232000F028FC3621182000F024FC67
:101CE0000121192000F020FC002100F02BFA8821AE
:101CF00000F013FA00F025FC802100F00EFA00F04D
:101D000020FC902100F009FA00F01BFCD02100F02B
:101D100004FA00F016FC0521172000F005FC002154
:101D200000F010FA002100F072FA002100F050FBE0
:101D3000012100F050FB3F21052000F0F5FB00F0F1
:101D400069FA0021072000F0EFFB00F031FBEF21E2
:101D500000F0E0F92821162000F0E6FB002100F059
:101D6000D5F9042100F0D2F93821282000F0DCFB5D
:101D700000F0DFFB3C212820B8E10021018041F286
:101D80001805408845F2084140F23F1640F202270C
:101D900041F23008884240F0E28000F0D1F900F0D2
:101DA00034FA00F014FB00F015FB394600F001FB9B
:101DB00000F0AFF900210A2000F0B6FB00210C2052
:101DC00000F0B2FB00210D2000F0AEFB00210F203F
:101DD00000F0AAFB00F0B0F900F0AAF900F0A4F9B5
:101DE00000F09EF93C2000F006FC072100F0A1F96C
:101DF00000F09FFB41F2B02100F09FF900F099FB49
:101E000040F2BD1100F091F900F093FB4FF4A051A6
:101E100000F087F90E21292000F086FB00F089FBF5
:101E200000F070F93146212000F07EFB40F60D31C4
:101E3000302000F079FB41F62311312000F074FBD3
:101E400041F62641322000F06FFB42F21C61332044
:101E500000F06AFB42F21941342000F065FB40F6C5
:101E60000B51352000F060FB41F2060100F04EF905
:101E70004FF4C261372000F057FB40F20671382062
:101E800000F052FB4FF44171392000F04DFB40F659
:101E900005613A2000F048FB40F601613B2000F06C
:101EA00043FB4FF487713C2000F03EFB40F20E51A3
:101EB0003D2000F039FB40F203413E2000F034FBAE
:101EC00040F207613F2000F02FFB00F07DFA00F0A8
:101ED00078FA00F073FA00F06EFA4FF427416020B0
:101EE00000F022FB0121612000F01EFB00216A208E
:101EF00000F01AFB0021802000F016FB0021812059
:101F000000F012FB0021822000F00EFB0021832054
:101F100000F00AFB0021842000F006FB0021852050
:101F200000F002FB1021902000F0FEFA0021922028
:101F300000F0FAFA0321932000F0F6FA00F0DDF841
:101F40000021972000F0F0FA0021982000F0ECFA30
:101F5000294600F03DFA4FF489710720C6E04FF49E
:101F60000041E52000F0E0FA0121002000F0DCFA59
:101F700000F0E6F800F049F900F029FA00F02AFA3A
:101F8000394600F016FA00F0C4F800210A2000F0EB
:101F9000CBFA00210C2000F0C7FA00210D2000F040
:101FA000C3FA00210F2000F0BFFA00F0C5F800F0DE
:101FB000BFF800F0B9F800F0B3F800F0BAFA41F257
:101FC000B07100F0BAF840F2371100F0B2F800F04A
:101FD000B0FA40F2391100F0A8F800F0AAFA4FF474
:101FE000E85100F09EF81321292000F09DFA00F03E
:101FF000A0FA00F087F80021212000F095FA0621D0
:10200000302000F091FA40F20111312000F08CFAFA
:102010000321322000F088FA4FF48371352000F05C
:1020200083FA40F6023100F071F840F202313720B5
:1020300000F07AFA40F20771382000F075FA0721B3
:10204000392000F071FA4FF4C0613C2000F06CFAC6
:1020500040F20B213D2000F067FA00F0B5F900F0E6
:10206000B0F900F0ABF900F0A6F94FF41C51602074
:1020700000F05AFA0121612000F056FA00216A208E
:1020800000F052FA0021802000F04EFA0021812059
:1020900000F04AFA0021822000F046FA0021832055
:1020A00000F042FA0021842000F03EFA0021852051
:1020B00000F03AFA1021902000F036FA0021922028
:1020C00000F032FA0321932000F02EFA00F015F808
:1020D0000021972000F028FA0021982000F024FA2F
:1020E000294600F075F940F27311072000F01CFA40
:1020F00004F10C00A060BDE8F0814FF488719520D8
:1021000000F012BA0021202000F00EBA362000F0B4
:102110000BBA0021092000F007BA1F2000F004BA12
:102120000021132000F000BA0021122000F0FCB9B9
:102130000021112000F0F8B90021102000F0F4B9BE
:102140004FF48071012000F0EFB901B4DFF8D4033F
:10215000BDF80010018001B0704701B4DFF8C4037E
:10216000BDF80010418001B07047DFF8B803806807
:1021700070472DE9F041DFF8AC538046A8688088AD
:1021800040F23F164742002406E02022B1B240460A
:1021900000F083F8BE19641CA96889884FF4A07008
:1021A00090FBF1F0A042F0D2BDE8F08110B50446FA
:1021B00000F0C3F907BF0021002040F23F110020CA
:1021C00000F00AF84FF0D840222101804FF49631F8
:1021D0004480491EFCD110BD38B500F0E3F8472813
:1021E0000AD1290A00F013F8E9B200F0F1F800F082
:1021F00011F82146072004E02146FFF784FF294615
:102200002120BDE8344000F08FB94FF4E061022096
:1022100000F08AB90021062000F086B92DE9F843C4
:10222000C4B28846914600262046FFF7D5FF4FF0FE
:10223000D847DFF8F05206E0641CE4B2414620467D
:10224000FFF7CAFF761CA968C888864223D22220DD
:102250003880002202E028887880521C8B889A42BD
:10226000EAD24FF00C0E93FBFEFE80204FEACE0E1A
:1022700039F816C000FA0EF010411CEA000F01D127
:102280000D2B06DB012090401CEA000FE3D10D2B43
:10229000E1DB6888E0E7BDE8F18310B5DFF8843260
:1022A0009C88203A472C04BF40F23F14611A9B6877
:1022B000DC881B68D2B26243BDE8104003EB4202E7
:1022C00089B2ABE72DE9F843DFF858628046B06881
:1022D00080880D46002440F23F17C0F1000907E056
:1022E00015F8012BB9B24046FFF7D7FF4F44641CE5
:1022F000287838B1B16889884FF4A07090FBF1F06C
:102300008442EDD3BDE8F183F8B500F04BF81746F1
:102310001E4647282BD140F23F10401B0102090CFA
:10232000FFF775FF40F23F10401BC1B200F050F8BC
:10233000701B00F59F700102090C00F04CF8701B37
:1023400000F59F70C1B2052000F0EEF8FFF762FFC4
:10235000C4F1EF00C1B2072000F0E6F800F028F861
:10236000381BBDE8F440EE30C1B20920DCE0BC42CD
:1023700023BFE01B411C89B2002100F026F8214652
:1023800000F020F8B54223BFA81B411C89B20021F0
:1023900000F015F8294600F00FF829462046BDE860
:1023A000F44019E70446DFF87C0180880D46704749
:1023B00000210820B8E031465320B5E0002152202A
:1023C000B2E0EF215120AFE000215020ACE04146C7
:1023D0000320A9E000210420A6E080B54FF4A073FB
:1023E000F02240F23F11EF20FFF78EFF4FF0D84070
:1023F000002101804088472807BF2821162041F28C
:1024000018010320BDE804408EE02DE9F84F044692
:10241000884640F23F10434EA0EB0809B0880025E3
:1024200092469B46472808BF1FFA89F12046FFF7CE
:10243000D3FE4FF0D847BBF1000F0CD122203880DB
:1024400055453EBF308878806D1CF9D311E0A0B2AD
:10245000FFF7C2FE6D1C55450BD222203880641C4C
:1024600030887880B08847280CBF1FFA89F1414630
:10247000EDE7BDE8F18FF8B516461F4604460D4658
:1024800000233A46FFF7C1FF301900233A46294698
:1024900080B2FFF7BAFF0123324629462046FFF7F4
:1024A000B4FFE81B411C3246204601B0BDE8F040B5
:1024B000012389B2A9E770B541888288438984895C
:1024C00043EA04431E184FF0D8450020288041EA13
:1024D0000241C91A68884C08472807BF682116209E
:1024E00041F20801032000F01FF82220288000207C
:1024F00003E036F8021B6980401CA042F9D300209B
:1025000028806888472804D1BDE87040282116201B
:102510000AE041F21801FFF75BFFBDE870400021BF
:10252000002059E6880900204FF0D84210805180E1
:10253000704714205FE005205DE037488088472819
:102540007047062057E080B501214FF4807000F0FD
:102550000AFE012140F2E11000F00EFEFFF702FB3F
:1025600003208DF8020018208DF803002B4800F09E
:1025700004FA4FF68070FFF7F7FA294800F0FDF9EA
:102580000120FFF7F1FA274800F0F7F94FF48050E7
:10259000FFF7EAFA244800F0F0F901BD00B597B062
:1025A0000120009000200190022002900020039062
:1025B000049005900690062007900020089009904E
:1025C00010200A9000200B900C900D900E900F9010
:1025D0004FF480501090002011901290139000A89A
:1025E0001490159007A802F041FD0121062002F089
:1025F000CAFD17B000BD01B481B0002000900B49A6
:102600000198484301E00098401E0090009800287F
:10261000F9D102B070470000880900200014014081
:1026200000180140001C014000200140A08601006C
:1026300010B504460FF2F01082B050F824000121CA
:1026400000F09AFD0FF2D81030F8140000F09CF85A
:1026500000F04AF8DFF8A40150F8240091E0DFF818
:102660009C110FF2BC1251F8201032F810000861D2
:102670007047DFF888110FF2A81251F8201032F8D5
:102680001000486170470FF2B0115D4A31F8101028
:1026900052F8200000F0CEB90420ADF8000000A9E7
:1026A000584800F06AB980B50121B02000F064FDFF
:1026B00000F071F800F018F8182000F019F8FFF792
:1026C000EBFF4FF4006000F08BF84F4800F055F935
:1026D00001214FF4806000F046FD0121022000F04E
:1026E00042FD01BDADF8000003208DF802007047E7
:1026F0008DF80300454800F040B970B505468CB030
:1027000000F035F800F037F84148009001951020AE
:102710000AE070B505468CB000F029F800F02BF8FF
:102720003B48009001950020029000A9B00803905A
:1027300000200490802005904FF4007006904FF424
:1027400000600790002008904FF40050099000208E
:102750000A90204602F091FD01220221204602F05B
:10276000B1FD0121204602F0A3FD0CB070BD0E4664
:10277000284802F0BABD284C0021204602F098BD3E
:10278000264800F0FAF813BDADF8000000A91020AB
:102790008DF8030070474FF4F850ADF8000000A921
:1027A00070478020ADF8000000A9204600F0E5B891
:1027B00010B582B001214FF4001000F0E6FC0121B9
:1027C000082000F0D9FC4020FFF78CFF1C2000F00F
:1027D0000EF8FFF7E6FF202000F002F82046D0E7D1
:1027E000ADF8000000A948208DF8030070478DF86F
:1027F000030000A9094C204600F0BFB8C40900201E
:102800000009002000140140001C0140001001409C
:102810008080014000F0001044040240000C0140A0
:1028200040008000000100028000000080000000E5
:102830008000000080000000010000200001002056
:10284000004000800800800062B38B0708D0521E51
:1028500011F8013B00F8013B00F024808B07F6D112
:10286000830740F0208000BF103A07D330B4B1E8AE
:102870003810103AA0E83810F9D230BC530724BF02
:10288000B1E80810A0E8081044BF51F8043B40F834
:10289000043BD20724BF31F8022B20F8022B44BF9F
:1028A0000B7803707047083A07D3B1E80810083A6C
:1028B00040F8043B40F804CBF7D25307E4E750F864
:1028C000041B61B150F8042BD30744BFA9F10103E5
:1028D0009A18002342F8043B091FFAD1EFE770472A
:1028E00080B56549884206D10121042000F056FCDC
:1028F000002104203CE06149884206D101210820E2
:1029000000F04CFC0021082032E05D49884206D1ED
:102910000121102000F042FC0021102028E059493C
:10292000884206D10121202000F038FC002120201F
:102930001EE05549884206D10121402000F02EFCBE
:102940000021402014E05149884206D10121802015
:1029500000F024FC002180200AE04D4988420BD180
:1029600001214FF4807000F019FC00214FF48070B9
:10297000BDE8044000F012BC01BD2DE9F041CC7867
:10298000002204F00F03E40644BF8C7823430C8834
:1029900001250F26E7B217B3D0F800C005FA02F7F9
:1029A000BE460EEA0408F04514D14FEA820E06FA3C
:1029B0000EF82CEA080C03FA0EFE4EEA0C0C91F805
:1029C00003E0BEF1280F08BF476103D0BEF1480FF6
:1029D00008BF0761521C082AE0D3C0F800C0FF2CD2
:1029E00026DDD0F804C0002202F1080705FA07F737
:1029F000BE460EEA0408F04515D14FEA820E06FAEB
:102A00000EF82CEA080C03FA0EFE4EEA0C0C91F8B4
:102A100003E0BEF1280F08BF476191F803E0BEF163
:102A2000480F08BF0761521C082ADDD3C0F804C054
:102A3000BDE8F08180680022084218BF01221046DC
:102A4000704701617047416170470AB10161704789
:102A50004161704730B501F0030221F003010D4BD5
:102A60009200CC580F259540AC43CC509040CC58A8
:102A70002043C85030BD000000080140000C014058
:102A8000001001400014014000180140001C0140EA
:102A900000200140080001400901002807D500F08E
:102AA0000F00DFF84C24801800F8041C7047DFF892
:102AB00044248154704710B500F010F8DFF8384412
:102AC00020680128FCD1002000F0CEF8FDF771FB52
:102AD000012000F0C9F800202060F1E710B50121C5
:102AE00040F2FD1000F048FB01214FF4006000F0BF
:102AF00043FB00F0D6F800F031F800F097F800F052
:102B000037F902F019FCFFF733F84FF6FF7420464F
:102B1000FFF74CFBDFF8E403007828B9DFF8E003A7
:102B2000016841F00041016000F076F9FDF730FDE9
:102B30002046FFF73BFB03F03EF9012000F04FF980
:102B400002F0FAFB1F20FFF708FB2046FFF7FDFA13
:102B5000FDF7EEFABDE81040FDF71FBCE0B500211F
:102B60004FF0006000F0CFFD4FF4A06000F09AFD40
:102B7000092000F04EF8172000F04BF828208DF8BF
:102B80000000022000F03AF803208DF80000002039
:102B90008DF8010000F035F814208DF800000120B8
:102BA00000F02CF813208DF80000002000F034F81D
:102BB000192000F01DF8032000F023F8292000F070
:102BC00017F88DF802008DF8030000A800F06FFDE3
:102BD00000208DF808004FF40030019008208DF897
:102BE000090001208DF80A0001A800F0A1FD07BD31
:102BF0008DF8000001208DF8010070478DF801006C
:102C000000208DF8020001208DF8030000A800F0DC
:102C10004EBD8DF8000002208DF8010001208DF8D6
:102C200002008DF8030000A800F041BD10B5B548C2
:102C300000686421B0FBF1F0B0F1807F13D2000294
:102C4000B14C000A401E60600F214FF0FF30FFF7CB
:102C500023FF0020A0600021072020604FF0FF30FC
:102C6000BDE8104018E7FEE730B583B0044600A881
:102C700000F090FD48F2880514B9009500200AE0A4
:102C8000284600F09AFD00208DF8040000950C20E5
:102C90008DF8050001208DF8060000A800F048FD21
:102CA00037BD80B54EF2801000F01DF89748FFF751
:102CB00064FE082000F017F89548FFF75EFE0D212E
:102CC00000F018F80E2100F015F803210320FFF79B
:102CD000C1FE0F2100F00EF8072100F00BF80821CB
:102CE00000F008F801BDADF8000000A904208DF83F
:102CF000030070470620FFF7ADBE01B48548009978
:102D0000016081490A6842F001020A600268002AF3
:102D1000FCD108684008400008600020886001B0CD
:102D2000704711B581B0002000907A4C7648016858
:102D300041F0010101600198206002E0FDF7C0FA56
:102D40000090206838B1009802281FBF009803281F
:102D500000980128F2D1009816BD6E48016811B1A3
:102D60000168491E01607047634801210160704796
:102D700010B588B000A804F0BAFA03A804F0C0FAAD
:102D80000020FFF755FC0120FFF752FC0220FFF75F
:102D90004FFC0320FFF74CFC40F2CF20ADF80000C1
:102DA0000020ADF8020042F20F70ADF804000020E0
:102DB000ADF806008DF8080000A9574C204604F035
:102DC00013FA0020ADF80C0003A90120ADF80E00A5
:102DD00000200490204604F04BFA08B010BD10B556
:102DE0004D4C4E49012807D108600122012120469F
:102DF00004F09AFA012107E0002008600022012176
:102E0000204604F091FA00212046BDE8104004F06D
:102E100081BA42480068704780B5FEF74EFC002832
:102E20005FD01F20FFF799F94FF6FF70FFF78DF97C
:102E3000FFF79BF90FF2E8010020FFF743FAFFF7D5
:102E400094F9C0880FF2F001FFF73CFAFFF78DF913
:102E5000C0880FF2FC014004000CFFF733FAFFF7C3
:102E600084F9C0880FF2001100EB400000F03AF83E
:102E7000FFF77BF9C0880FF208118004000CFFF700
:102E800021FAFFF772F9C0880FF20C1100EB8000F5
:102E900000F028F8FFF769F9C0880FF21411062234
:102EA000504300F01FF8FFF760F9C0880FF21811C7
:102EB000C0EBC00000F016F8FFF757F9C0880FF21A
:102EC0002011C004000CFFF7FDF9FFF74EF9C08890
:102ED0000FF2241100EBC00000F004F800F098F8A5
:102EE000FEE701BD80B2FFF7EDB9044800787047F6
:102EF00018ED00E000E400E030180020C40A0020D3
:102F000004ED00E0C009002010E000E000200140D6
:102F10000014014028180020002C01402C1800202B
:102F20002020202020205761726E696E67202020AB
:102F300020202020000000004E6F206C6F6164652F
:102F400064204269746D6170202020200000000020
:102F500066696C65732E2044656D6F2063616E2712
:102F600074206265000000006578656375746564AF
:102F70002E202020202020202020202000000000C3
:102F8000506C65617365206265207375726520748D
:102F90006861742000000000616C6C2066696C65DB
:102FA0007320617265202020202020200000000076
:102FB000636F72726563746C792070726F6772618F
:102FC0006D6D656400000000696E20746865204EB8
:102FD0004F5220464C41534820616E64000000006F
:102FE00072657374617274207468652044656D6FD6
:102FF0002E20202000000000202020202020202043
:103000002020202020202020202020200000000040
:103010007D487E4A016841F001010160416811402C
:1030200041607B4A016811400160016821F4802100
:103030000160416821F4FE0141604FF41F0181608D
:10304000704771490A6822F480320A60B0F5803F07
:103050000A6822F480220A6003D0B0F5802F04D0E1
:103060007047086840F4803002E0086840F4A0200F
:103070000860704710B582B0002000900024312015
:1030800000F0A4F80099491C00910099B1F5A06FD7
:1030900001D00028F3D0312000F098F800B10124CD
:1030A000204616BD5C49086070475A490A68920874
:1030B00040EA8200086070475648006800F00C0043
:1030C000704710430860704754490860704754497E
:1030D00000220A700A70012802D0042801D10520BC
:1030E000087070474E490A68EBE74E490860704720
:1030F00030B548494C4B0A6802F00C02082A0ED140
:103100000A680C68494DC2F38342921C5543E4039C
:1031100002D50C68A40301D52B4600E0534303609D
:10312000434A0B680468C3F303139B5C24FA03F35C
:1031300043600B684468C3F302239B5C24FA03F3E7
:1031400083600B684468C3F3C2239B5C24FA03F3D7
:10315000C3600968C368C1F381318918097CB3FB76
:10316000F1F1016130BD334A0029116814BF0843F1
:1031700021EA0000106070472F4A0029116814BF2F
:10318000084321EA0000106070472C4A00291168AA
:1031900014BF084321EA000010607047284A002944
:1031A000116814BF084321EA000010607047254AE7
:1031B0000029116814BF084321EA0000106070471D
:1031C00021490860704721490860704741090E4A4B
:1031D000012908BF116803D002290CBF116A516A86
:1031E00000F01F0021FA00F000F001007047184ABB
:1031F00012680021024218BF012108467047154994
:103200000870704700000000001002400000FFF846
:10321000FFFFF6FE0410024060004242D800424226
:10322000201002403C04424200127A0000093D0096
:103230009C09002014100240181002401C1002408B
:103240000C10024010100240400442424C00424226
:10325000081002400A10024070B598B001214FF4E6
:10326000F070FFF789FF4CF20370ADF800001820F2
:103270008DF8030003208DF8020000A9444C20467D
:10328000FFF77BFB4FF6807000F057F8414D284662
:10329000FFF773FB4FF23F0000F04FF83E48FFF797
:1032A0006CFB3E4E3F2000F052F84FF4605000F0AF
:1032B00048F8782000F041F82846FFF75EFB302000
:1032C00000F03FF84FF4007000F041F8402000F0AB
:1032D00034F804208DF803002046FFF74EFB02204F
:1032E000019000200290052003900020049005909A
:1032F00006904FF08050079002200890002009901F
:1033000008200A9010200B9000200C900D900E9039
:103310000F9010904FF48050119000201290139055
:10332000149001A81590169008A801F09FFE0121A5
:10333000022001F028FF18B070BDADF8000000A910
:103340007047ADF8000000A92046FFF716BBADF8A6
:10335000000000A93046FFF710BB1149AA220A80DD
:103360005523104A138090220A804FF0C8410A88E2
:1033700002804A8842808A8B8280C98BC1807047D4
:10338000FFE74FF0C840F0210180002070470000A7
:103390000014014000180140001C014000200140C1
:1033A000AA0A0064540500641FB5FFF701FADFF8AC
:1033B000B042204603F0D8FF0A20ADF8040000A96F
:1033C0004BF6FF70ADF806000020ADF808004FF492
:1033D0008060ADF80A004FF48040ADF80C00DFF8D3
:1033E00084020090204603F0D8FF01224FF4807140
:1033F000204604F06FF80121204604F02FF81FBD8D
:1034000070B504460E468CB0154601210120FFF729
:10341000AAFEDFF85402009001960020049080205C
:10342000059000200690079008904FF440500990B6
:1034300000200A90012C04D102900395DFF82C4261
:1034400005E05CB9DFF82842039510200290204681
:1034500001F0C6FE00A9204601F00FFF0CB070BDC0
:10346000F8B5DFF81042DFF8F861DFF80C72254696
:103470003946304604F073F80121304604F020F854
:1034800000F0E5F801E0ADB16D1EDFF8F01100F0DD
:10349000C4F80028F7D06DB1254600F0B7F800E079
:1034A0006D1E00F00BF808B9002DF9D100F0D3F82B
:1034B00000B90DB90020F2BD0120F2BDDFF8C01146
:1034C000304604F025B8DFF8A8710121384601F034
:1034D000EFBE2DE9F04182B000F0AFF800F09BF8AC
:1034E00028B12068411E21600028F7D15DE000F07E
:1034F0006FF80121304603F0C5FF00F0A8F800F096
:1035000077F8414600F089F828B92068411E21600B
:103510000028F6D149E000F079F82760FFF7CEFFE8
:1035200028B92068411E21600028F7D13DE0002124
:1035300000F053F82760DFF8501100F06EF850B932
:10354000DFF8481100F069F828B92068411E2160B1
:103550000028F0D129E000F07AF82760414600F019
:103560005CF828B92068411E21600028F6D11CE0D3
:1035700000F056F82760DFF81811FFF7A1FF28B90F
:103580002068411E21600028F5D10EE000F051F8BE
:10359000DFF8D870FFF799FF256000F033F830B9F5
:1035A0002068411E21600028F7D101200EE000F0C4
:1035B0003CF800F019F800F013F800F01FF89DF83F
:1035C00000009DF8011041EA0020C009BDE8F68125
:1035D000022200A9012013E70121304603F082BF37
:1035E0000021304603F044BF0021384601F060BEA0
:1035F0004FF480572760DFF8848070474FF00070E9
:1036000001F073BE4FF0007001F064BE0022902103
:10361000304603F06CBF4FF40031304603F085BFF5
:1036200001229021304603F062BF0121304603F0B1
:103630003DBF0121304603F01BBF0020DFF84440AE
:10364000ADF800004FF420452560054E704701217C
:10365000304603F021BF3946304603F066BF000014
:1036600000540040A0860100105400408000024039
:103670006C000240FFFF0300000400100100001076
:1036800082000700B80A002080000010040000102B
:1036900002000300002203F067BF0268531C0360AE
:1036A000117070471B4908431B490860704770B58B
:1036B0000378C4781A460121ECB1174B1B68447893
:1036C00003F4E063C3F5E0631B0AC3F10405AC40F7
:1036D00085780F2626FA03F32B4023430F4C1B015A
:1036E000135500780E4B420900F01F0001FA00F05C
:1036F00043F8220070BD50090A4A03F01F039940A5
:1037000042F8201070BD084A11400843074908607C
:10371000704700000000FA050CED00E000E400E056
:1037200000E100E080E100E080FFFF1F08ED00E025
:1037300030B501688279CB4322492AB30A4614681E
:103740002340136053680468A34353600379CC1883
:10375000236805682B43236093680468A343936040
:10376000D3680468A343D36043790568102B07D15D
:10377000916829439160D16800680843D06030BDEA
:10378000CC182068284303E000790C182068184002
:10379000206030BD0021016001710C2141710021C8
:1037A00081717047074A1368526900210340024241
:1037B0001CBF002B01210846704700BF024908606A
:1037C000704700000004014014040140F8B50446AD
:1037D000084611462278DFF82055DFF82065052AD3
:1037E00028D8DFE802F0031F946D75784078002830
:1037F0002BD100F0D8F928212846FFF74BFFDFF83E
:1038000000050021018000230A18491C9370142927
:10381000FAD300210A18491C93751429FAD3438559
:10382000012075E04078002873D180213046FFF7F1
:1038300001F928B96BE000F040FA002000F06AF8C6
:103840002078052865D0032802D1F1BD0220207020
:1038500000208DF80000282620780027012823D09A
:10386000022804D00328EBD00528E4D026E000F09D
:1038700024FA07E000F072F8012804BF9DF8000068
:1038800005F8010B3046461EC0B20028F2D1287858
:1038900000283CD003203BE000F060F8012804BF82
:1038A0009DF8000078557F1C282FF5D32878002834
:1038B000CCD00320207000F000FAC1E70120C6E759
:1038C000407830BB284600F008F900BB04201FE018
:1038D00000F048F8F1BD012000F01CF8DFF82404E6
:1038E00000F016FADFF820442046FEF7F9FF2046E4
:1038F000FEF7F6FF3046FEF7F3FF00211820FFF732
:103900003BFC00214FF48020FFF73FFCF1BD052078
:103910002070F1BDDFF8E42318B140211046FFF715
:1039200090B840211046FFF78EB802464FF4006170
:10393000DFF8D403FFF789B810B5DFF8D003DFF85C
:10394000C4430178204600F0B9FA00F003F80028DB
:10395000FBD010BD4021204600F0DCBA4FF480417E
:1039600000A8B0E12DE9F04182B0044600208DF8B6
:1039700000000D461421284603F010FE0020287593
:1039800068750122DFF87C834021404600F088FA08
:10399000DE4F207800F098F800F09BF80028FBD06C
:1039A000607800F091F800F094F80028FBD0A0783F
:1039B00000F08AF800F08DF80028FBD0E07800F0E5
:1039C00083F800F086F80028FBD0207930B100F0B1
:1039D0007BF800F07EF80028FBD007E0607E28B17D
:1039E00000F072F800F075F80028FBD0404600F0B7
:1039F00069FAFFF7B3FF012821D19DF8000000F01C
:103A0000F001602918BF902908D12875FFF7A6FF9B
:103A1000012814D19DF80000687510E000F0FE0246
:103A20006178CB4303F0FE039A421EBF00F0FE0014
:103A300001F0FE01884204BF9DF800002870287D37
:103A400000283FD12079B0B1002608E03019407934
:103A500000F03AF800F03DF80028FBD0761C207901
:103A60008642F3D3404600F02DFA00224021404622
:103A700000F016FA0EE0607E60B1002607E0FFF766
:103A80006DFF012804BF9DF800007055761C607E14
:103A90008642F4D30024FFF761FF012803D19DF88B
:103AA0000000287502E0641C0A2CF4D30024FFF700
:103AB00055FF012803D19DF80000687502E0641CE1
:103AC0000A2CF4D3BDE8F38138704046397800F011
:103AD000F5B94021404600F01DBAF0B5884A047897
:103AE0001470002144785470002304F00F0582F80C
:103AF0002B50240648BF0123557805F0F0050E1D14
:103B000092F82A40F54005F001052C19491C82F86D
:103B10002A400429F0D3002404E02518A118AD7828
:103B20008D70641C92F82A108C42F6D3891849785B
:103B300001F00F010CE02E19B7183618641CB67886
:103B4000BE7092F82A60B442F5D3AC1982F82A40CC
:103B50001BB3002492F82A50AB185B7882F82A40F5
:103B6000DB09AF1804F1040C7F7892F82A6007F0A3
:103B7000F00727FA0CF707F00107BE19641C82F85A
:103B80002A60042CEDD30024DBE792F82A40E418E5
:103B900024189D18A478AC755B1C92F82B40A342A6
:103BA000F3D30846F0BD2DE9F04188B0012118207B
:103BB000FFF7E2FA01214FF48020FFF7E6FA182020
:103BC0008DF803004FF4805403208DF80200ADF807
:103BD000004000A94C4D00F073F81C208DF8030044
:103BE0004FF48066ADF8006000F069F810208DF8A1
:103BF00003004FF40068ADF8008000F060F8012089
:103C0000ADF8000000F05BF84020ADF8000000A91E
:103C10003A48FEF7B2FE3B4F0521384600F05EF908
:103C20001021384600F052F900F041F8ADF8048058
:103C30004FF48070ADF80A0001A9384600F002F98F
:103C400042F2CD500390ADF810404FF44050ADF823
:103C50001200ADF814600C20ADF8160003A9002086
:103C6000ADF81800384600F097F8012228213846B0
:103C700000F0FEF801226021384600F0F9F8012139
:103C8000384600F0EBF80121384600F039F90121FF
:103C9000384600F02BF900F010F801212846FEF715
:103CA000D0FE0020FFF736FE08B0BDE8F08100200E
:103CB000ADF80600ADF808007047012035E600A910
:103CC0002846FEF75ABEF8B504460D4600260D4FAD
:103CD00000E0761C2021384600F01CF908B9AE42FD
:103CE000F7D1AE4205D0384600F0ECF82070012044
:103CF000F2BD0020F2BD000044170020001001407A
:103D00001C16002000480040000C014084040020E4
:103D100080B5474988420BD101214FF48040FFF71D
:103D20003DFABDE8044000214FF48040FFF736BA69
:103D30004049884208D101214FF40030FFF737FA9B
:103D400000214FF4003022E03B49884208D1012194
:103D50004FF48020FFF72BFA00214FF4802016E06B
:103D60003649884208D101214FF40020FFF71FFA9D
:103D700000214FF400200AE0314988420BD1012193
:103D80004FF48010FFF713FA00214FF48010BDE8C4
:103D90000440FFF70CBA01BD30B5044685B00D46AE
:103DA000208A4CF6FF710840E988084320824EF6CD
:103DB000F311A0890840A988084329890843698923
:103DC0000843A0814FF6FF41A08A0840A989084313
:103DD000A08200A8FFF78CF9154884420CBF039815
:103DE0000298296819225043A28912044CBF490045
:103DF0008900B0FBF1F16420B1FBF0F00001020991
:103E0000642303FB1211A289120406D5C9003231C2
:103E1000B1FBF3F101F0070105E009013231B1FB1B
:103E2000F3F101F00F010843208105B030BD00001F
:103E3000003801400044004000480040004C004071
:103E400000500040028A4FF2FF031A400B881A43C9
:103E50004B881A438B88C9881A432CE00029818932
:103E600012BF41F400514DF6FF721140818170473D
:103E700010B50B065B0F012401F01F0104FA01F1DC
:103E8000012B08BF0C3003D0022B0CBF10301430B4
:103E9000002A026814BF114322EA0101016010BD2B
:103EA000002A828A14BF114322EA010181827047ED
:103EB0001A400282028A114301827047C905C90D66
:103EC000818070478088C005C00D7047028BD2B2D8
:103ED0000283028B42EA012101837047028B02F4C4
:103EE0007F420283028B1143018370470029818A3C
:103EF00012BF41F020014FF6DF72114081827047FE
:103F00000029818A12BF41F010014FF6EF72114073
:103F10008182704700880022084218BF01221046A3
:103F2000704730B50A46130600215B0F012402F0EA
:103F30001F0504FA05F5012B08BF838903D0022B66
:103F40000CBF038A838A120A008804FA02F22B400B
:103F50001040002B1CBF00280121084630BD012263
:103F6000090A02FA01F189B2C943018070470000D1
:103F70000CB41CB5044604A801900A46009401AB99
:103F800000A907487844183003F00CFB0099002280
:103F90000A7000285CBF0098001B16BC5DF80CFB83
:103FA000FBF6FFFF4268374B1A400B681A430B7948
:103FB00042EA03224260344B82681A40CB681A43BB
:103FC0008B681A434B7942EA43028260C26A097CD9
:103FD000491E22F47002C9B242EA0151C16270471F
:103FE0000029816812BF41F0010149084900816040
:103FF00070470029816814BF41F4A00121F4A00199
:104000008160704770B507240A290BDBA1F10A050E
:1040100005EB4505C668AC4026EA0404AB402343E3
:10402000C36008E001EB41050669AC4026EA0404E0
:10403000AB40234303611F24072A09DA521E02EB17
:104040008202436B9440A34391401943416370BD86
:104050000D2A09DAD21F02EB8202036B9440A343BC
:1040600091401943016370BD0D3A02EB8202C36AAD
:104070009440A34391401943C16270BDC06C80B2AB
:1040800070470000FFFEF0FFFDF7F1FF2DE9F04162
:10409000DFF8E05986B00446296224208DF8040038
:1040A00000208DF805008DF8060001208DF807002E
:1040B00001A8FFF7FCFA012140F29910FFF75CF824
:1040C0004FF43040ADF8000003208DF802001820B6
:1040D0008DF8030000A9DFF8A06900F049FCC020BA
:1040E000ADF8000000A9DFF89409FEF746FCC020F7
:1040F00000F068F81C2000F039FC01214FF400109A
:10410000FFF743F80020FEF7B4FA0120FEF7B1FAFA
:104110000220FEF7AEFA0320FEF7ABFADFF8606983
:104120004FF400613046FEF78EFC4FF4006000F063
:1041300049F8102000F01AFC00F0FCF9A8630328ED
:10414000DFF8406904D2802100F00DFCA86B36E056
:10415000AF8B01214FF48040FFF717F8DFF8288973
:10416000404604F083FA4FF400700021ADF80800D7
:10417000ADF80A10ADF80C10ADF80E00ADF8141043
:10418000049702A9404604F0A3FA00227121404698
:1041900004F0EFFA0121404604F0E1FA6C631823C1
:1041A0004FF400720021A0B200F0FEF920B14021CE
:1041B00000F0D9FB032002E000F0D3FB002006B0A2
:1041C000BDE8F081ADF8000000A903208DF80200E1
:1041D0007047DFF8B81808604860704710B5DFF81E
:1041E0009448206A012000F08AF9012200F017F8B3
:1041F000E06A10BD80B500F011F8022000F07FF9F0
:10420000DFF870080021C16301644189012903D1ED
:10421000C16A49084900C162C06A02BD0022712119
:10422000DFF8640804F0A5BA10B5FFF7F7FFDFF870
:1042300044480020E062022000F04DF8002000F029
:104240005EF90020E063206410BD38B5DFF8245823
:104250000C4669780F280DD10429B8BF002003DB74
:104260000A2000F0DDFA001B68706978BDE8344070
:104270000A2095E20A2807D1FC29A8BFFF20F3DA1B
:1042800000F0CEFA2018EFE710B96C702146EDE788
:10429000FF2032BD38B50446FFF7ACFF00F013F83D
:1042A00000F008F907E038B50446FFF7A3FF00F077
:1042B0000AF800F00FF9E86A40084000E862E86A8E
:1042C000BDE832408AE7DFF8AC57686A6421B0FB8A
:1042D000F1F06043704780B5022806D100F00DF878
:1042E000BDE80440002100205AE2BDE804404FF43C
:1042F0000061DFF88C07FEF7A6BB402100204FE2EB
:1043000010B5DFF87C474FF400612046FEF79BFBB9
:10431000FF2000F0D9FB2046BDE810404FF40061BB
:10432000FEF78FBBF8B504460D46FFF7E9FFDFF84F
:104330004467F76A29462046FFF7A8FE38B9F762B6
:104340007178FFF782FF3846FFF748FF0020F2BD83
:1043500038B5DFF83C57DFF83047286838B9042112
:10436000204604F015FA012808BFFFF75DFF286812
:10437000022809D10421204604F00AFA012804BFCA
:10438000BDE83140FFF736BF31BDDFF8E806806A8F
:104390007047DFF8E0064078704738B5DFF8D4465C
:1043A0000025257000F07BF8DFF8E816884201D080
:1043B000012032BD00F06DF8606000F070F8DFF8A9
:1043C000D816884201D0022032BD00F068F8DFF82C
:1043D000CC16884201D0032032BD00F05AF81028D4
:1043E00018BF012500F058F820812089012801D04C
:1043F000042032BD00F050F8608100F04AF8E0601F
:10440000B0F5FA5F18BFB0F57A5F0BD045F22261C4
:1044100088421FBF4AF6444188424BF680318842A9
:104420000FD010E0A08300F034F8206100F034F8E1
:10443000A08200F031F8E082E08A102805D0072041
:1044400032BD0846EEE7062032BD8DB100F024F8FB
:1044500008B1092032BD00F022F8DFF84416884286
:1044600001D00A2032BD00F014F8217840182070E5
:1044700000F015F8DFF82C16884201D0082032BD74
:1044800000F007F8A0612178A06A0818A062002057
:1044900032BD002104201DE2002102201AE2012188
:1044A000042017E2DFF8CC05C06A7047DFF8C415B6
:1044B000C862704780B5DFF8BC15CA6A8018C86248
:1044C000C86A496A884204D300F00FF8BDE8014089
:1044D0001AE001BDDFF89C15CA6A904228BF00F0BF
:1044E00004B8CA6A101AC8627047DFF88805816A82
:1044F000C162006A7047DFF8980500687047DFF80E
:10450000901508600868704710B5DFF8804520688E
:10451000616828B1491E03D10020FFF7F0FF216830
:10452000616010BDDFF84C05406B7047DFF8440553
:10453000406A704738B500F027FA08B1012032BD53
:10454000DFF83055DFF86045296A6422204600F024
:1045500049FA2046FFF721FFA870A87820B9A8697A
:10456000E9686862A98332BD022032BD00B585B01A
:104570000020ADF8040000A94BF6FF70ADF806006E
:104580003320ADF808004FF48060ADF80A004FF416
:104590008040ADF80C00DFF814050090DFF810053E
:1045A00002F0FBFE05B000BD2DE9F84FDFF8C44472
:1045B0000027054627630E46206B92469946B8466B
:1045C000FFF79EFE16B1102E02D003E0032602E094
:1045D000022600E00126DFF8B0B4A80763D5BAF1DF
:1045E000000F0DD14FF0010800F0CBF8074600F0A6
:1045F000C5F8C719FFF781FEC7190121084608E071
:10460000314600F0C0F8074600F0BFF8C719402156
:10461000404600F0C5F8C71900F0BAF83C21062062
:1046200000F0BEF8C719E121082000F0B9F8C71959
:1046300000210B2000F0B4F8C7192021072000F05A
:10464000AFF8C719C121092000F0AAF8C719C12184
:104650000C2000F0A5F8C71900F097F8C719092138
:104660000F2000F09DF8C71918210E2000F098F8CF
:10467000C71949460A2000F093F8C71949460D208A
:1046800000F08EF8C7197421FFF738FEC71948F0FB
:104690003001012000F084F8C71948F070010120B2
:1046A00000F07EF8C719E8075DD5BAF1000F0BD10D
:1046B00000F067F8C51900F061F84519FFF71DFE15
:1046C00045190121012008E0314600F05CF8C519C8
:1046D00000F05BF845194021002000F061F8451911
:1046E00000F056F8022100F04AF845192021022076
:1046F00000F056F845191021032000F051F8451933
:104700003C21062000F04CF84519E121082000F07A
:1047100047F8451900210B2000F042F845192021E7
:10472000072000F03DF845199121092000F038F8E4
:10473000451991210C2000F033F8451949460A200B
:1047400000F02EF8451949460D2000F029F800EB3D
:1047500005095421FFF7D2FD8144A021022000F079
:104760001FF800EB090700227121584604F001F8F8
:1047700000202063206B3846BDE8F28F032105201E
:104780000EE046F0200104200AE00021052007E0A9
:10479000012020630122206B7121584603F0E9BFFC
:1047A00070B504460D46C24E0121304602F0A7FE08
:1047B0000021304602F0A3FE0121304602F04EFEF9
:1047C000FFF7D4FE0121304602F066FEB94900F041
:1047D00024F80028FAD000222721304602F087FE74
:1047E000B54900F01AF80028FAD0E1B2304602F0DC
:1047F00079FEB24C00F010F80028FBD0E9B2304648
:1048000002F070FE00F008F80028FBD001213046CD
:1048100002F04CFE002070BD2146304602F078BE0A
:1048200070B50446A24D0021284602F017FE012172
:10483000284602F064FE0021284602F060FEFFF7E1
:1048400095FE0121284602F027FE9A4E00F03EF820
:104850000028FBD00021284602F032FE002227214A
:10486000284602F044FE944900F031F80028FAD0BE
:10487000E1B2284602F036FE904900F028F8002800
:10488000FAD00121284602F007FE00F01FF80028A8
:10489000FBD001222721284602F029FE884900F09A
:1048A00016F80028FAD0874900F011F80028FAD04D
:1048B0000121284602F0FAFD284602F015FE0446C2
:1048C0000121284602F0FCFD204670BD31462846F5
:1048D00002F01EBEF0B50A4600250021654B724C61
:1048E00052B9854214D21A78165DEF00BE40521CB0
:1048F00031431A706D1CF4E7050008E01878025D7A
:104900006E1EF600B2401143401C18706D1EF5D1AA
:104910000846F0BD70B5574C82B00546E06BD8B97B
:1049200000F04FF800F02CF800F050F8544E00F072
:104930001FF8206A285A206400F03FF800F01BF8A6
:1049400000F016F800F00DF800F073F86089012807
:1049500004D1E06B401C00E00020E063206C80B2DA
:1049600076BD4FF400713046FEF76BB88DF803004A
:104970003046FEF702B810208DF8030000A97047FA
:104980000121022000F0FFBB10B582B000F019F841
:10499000FEF762FCFEF7F4FC00F00FF800F016F8EA
:1049A000374C2046FDF7E9FF4FF400712046FEF733
:1049B00048F800F03EF8002016BD0021022000F06B
:1049C000E2BB01214FF48070FEF7CDBB18208DF8BB
:1049D000030003208DF802004FF40070ADF80000D2
:1049E00000A97047F8B504460D461646FFF7E9FFE3
:1049F000FFF7C6FFFFF7EAFF214F3846FDF7BDFF7F
:104A000003E015F8010B04F8010B3046461E80B296
:104A10000028F6D1FFF7D1FFFFF7ADFF3846FDF7CD
:104A2000ACFF4FF400713846FEF70BF800F001F8C8
:104A3000F1BD00214FF48070FEF795BB38B50D4DE8
:104A4000114C286B012806D12046BDE8344041F2C4
:104A5000111103F09BBEE86AFFF75CFF0146204698
:104A600003F094FE6889FFF725FDBDE831406FE44F
:104A700000000000E8040020000C0140001001408C
:104A800000200140001C014000380040940A002032
:104A900020180020464649524556415720746D66FD
:104AA000746361666174616444150020400D030005
:104AB000005400400100030082000700840007004A
:104AC000020003004000030001B402E00098401E11
:104AD000009000980028F9D101B07047F8B54FF662
:104AE000FF7500242846FDF761FB0020FEF7BCF8A7
:104AF000FBF7E6FB0028FBD1DFF8280500F0ADF856
:104B00000020FFF766FBDFF8206531460120FFF744
:104B1000BDFA04E0FFF739FCFFF760FB62B6FBF774
:104B2000CFFB07463CB972B64FF4805000F095F8C1
:104B3000DFF8F84462B6641E042F15D100F08AF83D
:104B4000012808D104210F20FFF77FFB4FF48030AC
:104B500000F083F8E2E700F07AF831460120FFF731
:104B6000E1FB0028DAD063E0052F0BD100F072F8EA
:104B7000012802D104210A20E6E700F068F8314656
:104B80000220ECE7022F09D100F064F80128C5D11A
:104B90000220FFF77FFB4FF48070D9E7032F07D186
:104BA00000F058F80128B9D10620FFF77CFBF2E7A6
:104BB000012F18D172B64FF0805000F04EF800204F
:104BC000FFF79DFC62B6FFF72FFB00227121DFF893
:104BD000600403F0CEFD00F0B8F92846FDF7E6FAD0
:104BE000FBF7B3FA2EE0062F99D100F033F8012835
:104BF00007D14FF4801000F030F80220FFF77FFC5F
:104C00008CE7FFF778FC022804D100F020F8FFF7CA
:104C100049FC81E7FFF76FFC0028F1D100F017F89D
:104C2000FFF780FC3146FFF731FA00283FF472AFFE
:104C300000F090F900F089F92846FDF7B7FAFBF784
:104C400084FA62B6BDE8F2400120FEF70DB84FF0DD
:104C5000807002E072B6FFF74EBC2DE9F84F834634
:104C6000002700F072F9DFF8CC4304F1A4006425BA
:104C70000626009004F190084FF61F094FF6FF7AC0
:104C8000BBF5807F33D0BBF5805F0ED0BBF5801FB6
:104C900050D0BBF1807F6CD0BBF1805F00F097807B
:104CA000E0498B4500F09180EBE0FFF7FBFB044609
:104CB000FFF73CFC05FB04F1B1FBF0F5EDB2002D74
:104CC00048460AD1FDF741FAFDF74FFA00F021F905
:104CD000FDF74BFA00F02FF90AE1FDF736FAFDF780
:104CE00044FAC08805EB450100F018F900E1FFF730
:104CF000D9FB0646FFF71AFC05FB06F1B1FBF0F6FF
:104D0000F6B24846FDF721FAFDF72FFA00F001F957
:104D1000FDF72BFA00F00FF94846FDF716FAFDF7FC
:104D200024FAC08807EB470100F0F8F87F1CBE4268
:104D3000F5D2A9E05046FDF708FAFDF716FAC0884B
:104D400000EB400004F1540100F044F9FDF70DFAC6
:104D5000C088800404F1680100F03FF900F040F9D8
:104D6000FDF703FAC088704304F1CC0100F032F97A
:104D70008AE00020FDF7E9F9FDF7F7F9211D384633
:104D8000FDF7A0FAFDF7F1F9C088400404F118011D
:104D900000F023F95046FDF7D8F9FDF7E6F9C08891
:104DA00000EB400004F12C0100F014F9FDF7DDF9EF
:104DB000C088800404F1400100F00FF900F010F900
:104DC000FDF7D3F904F1B80119E000F00DF95046F0
:104DD000FDF7BBF9FDF7C9F9C08800EB400004F10D
:104DE0007C0100F0F7F8FDF7C0F9C0888004414667
:104DF00000F0F3F800F0F4F8FDF7B7F90099C08877
:104E0000704300F0E7F8FDF7B0F900F090F880B2D9
:104E1000FDF7AFF90020FDF798F9FDF7A6F900F0CE
:104E200086F87622FA2100F06AF8FDF79EF900F084
:104E30007EF86F22EB2100F062F8FDF796F900F0A2
:104E400076F86C22DC2100F05AF8FDF78EF900F0BC
:104E50006EF82D22C82100F052F8FDF786F900F017
:104E600066F82B22552100F04AF8FDF77EF900F094
:104E70005EF808302B460A22B92180B2FDF7FBFA12
:104E800002E0BBF5805F33D0FFF783FAC0F1FF008B
:104E9000684380B2FF2190FBF1F5EDB21F20FDF7D2
:104EA00054F9FDF762F9C088217800EBC000C1F128
:104EB000B90100F027F8FDF758F9C088217800EB18
:104EC000C000C1F1BA0100F01DF800F089F8FDF74B
:104ED0004CF900F02CF8C5F1B90100F013F8FDF71A
:104EE00044F900F024F8C5F1BA0100F00BF8257080
:104EF000BDE8F44F00214FF48070FEF734B980B262
:104F0000FDF7CBB90A300123082289B280B2FDF740
:104F10007CBAC088C004000CFDF72BB9C1F59B71A9
:104F2000C0040123102289B2000CFDF76EBAC088BC
:104F300000EBC0007047C088C0044FF49673102285
:104F40004FF49B71000CFDF796BA01214FF480706D
:104F5000FEF709B938B5044600F046F8FFF7F5FF4B
:104F600000F03EF84FF6FF70FDF720F9324D012CAE
:104F700004D1FDF7FAF805F114010BE0022C04D17D
:104F8000FDF7F3F805F1280104E0032C07D1FDF744
:104F9000ECF82946C088C0EBC00000F01BF8FDF714
:104FA000E4F8C0880FF29401C00400F016F8FDF791
:104FB000DCF8C0880FF29C0100EBC00000F00AF89A
:104FC00000214FF48070FEF7CEF8FBF779F9002846
:104FD000FBD031BD80B2FDF775B9000CFDF772B999
:104FE0004FF47840FDF7B1B810B51F20FDF7B5F8C4
:104FF0000020FDF7AAF84FF6FF70FDF7D7F8FDF790
:10500000B4F80C4C211D0020FDF75CF9FDF7ADF85C
:1050100004F11801C088BDE810404004000CFDF701
:1050200051B900000001111100000664FFFF0500E6
:1050300000380040100100206C0500205075736896
:10504000204A6F79537469636B20746F202020208D
:1050500000000000657869742E2020202020202088
:1050600020202020202020200000000010B54268D1
:1050700083681A43C3681A4303691A4343691A438E
:1050800083691A43C3691A43036A1A43436A1A437A
:10509000836A1A43C36A1A43036B1A434FF02041D1
:1050A000036841F823208268082A06D1026851F873
:1050B000223043F0400341F82230416B0A684B68CC
:1050C00042EA03128B6842EA0322CB6842EA0342B7
:1050D0000B6942EA03524B69896942EA0362114350
:1050E00002689200A2F1C0425160C36A0168384A66
:1050F000B3F5804F10D1806B0368446843EA041312
:10510000846843EA0423046943EA045344698069D8
:1051100043EA0463184301E06FF0704042F8210055
:1051200010BD30B5416882681143C26811430269FD
:105130001143426941EA4221826941EA4231C2692E
:105140001368546843EA04239468D26843EA04432A
:1051500043EA0262036A1C685D68006844EA052449
:105160009D68DB6844EA054444EA036341F00801B2
:10517000184C102803D12160A260E36030BD216289
:10518000A262E36230BD4FF02042002952F82010A5
:1051900012BF41F00101104B194042F82010704736
:1051A0000C4A49B1102803D1106840F0040008E00F
:1051B000106A40F0040008E00849102803D1106884
:1051C000084010607047106A084010627047000085
:1051D000040100A0600000A0FEFF0F00FBFF0F0015
:1051E00001684FF6FE7211400160002101604160CC
:1051F0008160C160404A414990421DD0404A90427E
:1052000021D0404A904225D03F4A904229D03F4A7F
:1052100090422DD03E4A904203D1086840F470007D
:1052200029E03C4A904203D1086840F0706022E0D7
:10523000394A3A49904203D1086840F00F001AE019
:10524000374A904203D1086840F0F00013E0354A35
:10525000904203D1086840F470600CE0324A9042FA
:1052600003D1086840F4704005E0304A904203D111
:10527000086840F470200860704702688B686FF31C
:105280000E121A430B6A1A430B691A434B691A43ED
:105290008B691A43CB691A434B6A1A438B6A1A43C8
:1052A0000260CA6842600A6882604968C1607047EB
:1052B0000029016812BF41F001014FF6FE72114052
:1052C00001607047002A026814BF114322EA0101FD
:1052D000016070470021C2004CBF154A154A126890
:1052E000024218BF012108467047C1004CBF0B495C
:1052F00002490860704700000800024004000240B4
:105300001C000240300002404400024058000240AD
:105310006C00024080000240080402400404024085
:105320001C0402403004024044040240580402407D
:10533000000402400000024080B501214FF080507F
:10534000FDF723FF012003F03EFABDE802400120F3
:10535000FDF739BF80B54FF48030FDF772FEFDF7E1
:1053600089FE01280DD1FDF79DFE3920FDF72EFFA6
:105370000028FAD00220FDF798FEFDF79DFE0828D0
:10538000FBD101BD2DE9FE43DFF824770020386012
:1053900000F0C2F900F02BFA2046FCF7D6FE00F030
:1053A00029FAFAF78DFF0028FBD18DF808004FF499
:1053B00080760C208DF809000196012000F0B3F8EA
:1053C00017208DF8000001208DF8010000F0B0F8E2
:1053D000FCF7CBFE00F004FAFCF7C7FE00F08DF9F5
:1053E000FCF7C3FEC0880FF220710625684300F069
:1053F000EAF9FCF7BAFE00F078F9FCF7B6FE00F027
:1054000084F9FAF75DFF0128FBD1FAF759FF00286C
:10541000FBD1FCF7AAFE00F058F980B2FCF7A9FE18
:10542000FCF7A3FE00F055F9FCF79FFE00F0D2F95F
:10543000FCF79BFEC0880FF2187100F052F9FCF7E0
:1054400094FEC0880FF2207100F03AF9FCF78DFE4F
:10545000C0880FF22C71684300F0B5F9022003F008
:1054600028FA00F0AFFADFF84C06042101600120B1
:10547000012103F0ABF900F0F5FA00208DF80800E7
:1054800001960C208DF80900002000F04CF8172040
:105490008DF8000002208DF80100012000F048F88E
:1054A000FFF758FFFAF70CFF0028FBD138680FF21E
:1054B00030760FF214780FF2E06940B1FCF755FE38
:1054C00000F02BF8FCF751FE0FF2E46107E0FCF767
:1054D0004CFE00F022F8FCF748FE0FF21C71C08869
:1054E00000F0EEF8FCF741FEC088684300F06AF96E
:1054F000FCF73BFE00F0E9F8314600F064F9FAF7FA
:10550000DFFE0028FBD02046FCF750FEFAF71DFE18
:105510000120FDF7A9FBBDE8F783C0888004494658
:10552000000CFCF7CFBE8DF80A0001A8FEF700B909
:105530008DF802008DF8030000A8FEF7B8B82DE939
:10554000F04100F0E9F800F052F92046FCF7FDFDCB
:1055500000F050F9FAF7B4FE0028FBD10FF2806595
:105560000FF264680627042003F0C7F94AF2A55138
:1055700088422DD0FCF7F9FD00F0E6F9FCF7F5FDC7
:1055800000F0EDF9FCF7F1FD00F010FAFCF7EDFD8D
:1055900000F0A4F8FCF7E9FD00F000FAFCF7E5FDE7
:1055A000C0880FF2E461784300F00DF9FCF7DDFDEF
:1055B00000F08BF800F006F9FCF7D7FDC088C004B6
:1055C000294600F004F9FAF77BFE0028FBD06DE0D5
:1055D000FCF7CBFD00F004F9FCF7C7FD00F08DF8F7
:1055E000FCF7C3FDC0880FF22051784300F0EBF8C0
:1055F000FCF7BBFD00F079F8FCF7B7FD00F085F88B
:10560000FAF75EFE0128FBD1FAF75AFE0028FBD11B
:105610002046FCF7CBFD03F00EF90646B1B2182088
:1056200003F05FF9310C1C2003F05BF901F049FC39
:10563000FCF79BFD00F04DF8FCF797FDC0880FF2DA
:105640001051784300F0BFF8FCF78FFDC0880FF2CF
:105650005061C0EBC00000F0B6F800F0B3F90121D2
:10566000012003F0B3F800F0FDF9FFF773FEFCF73B
:105670007CFDC0880FF2205100F033F8FCF775FD77
:10568000C0880FF22C5100F01BF8FCF76EFDC088AB
:10569000784300F097F8FCF768FD00F016F829460B
:1056A00000F091F8FAF70CFE0028FBD02046FCF73A
:1056B0007DFDFAF74AFDBDE8F0410120FDF7D4BABF
:1056C00000EB800080B2FCF7FDBDC088C0EBC000DD
:1056D0007047C088C004000CFCF74BBDC0880FF2B7
:1056E00078518004000CFCF7EDBDC0880FF230410A
:1056F000C0EBC00080B2FCF7E5BDC0880FF2F0310E
:1057000000EB800080B2FCF7DDBDC0880FF22841BD
:10571000C004000CFCF7D6BD4FF6FF742046FCF722
:1057200045BD10B5FFF7F8FF00F061F82046FCF723
:105730000CFD00F05FF8FAF7C3FD0028FBD1FCF781
:1057400014FD00F04DF8FCF710FD00F01FF9FCF718
:105750000CFDC0880FF278510624604300F033F846
:10576000FCF703FD00F00AF9FCF7FFFCC0880FF21C
:10577000905100F02BF8FAF7A3FD0128FBD1FAF7BE
:105780009FFD0028FBD1FCF7F0FC00F0D8F8FCF7F7
:10579000ECFC00F0DEF8FCF7E8FC00F0CBF8FCF7DE
:1057A000E4FC00F017F8FCF7E0FC00F0DFF8FCF791
:1057B000DCFCC0880FF2785100F008F8BDE810401A
:1057C00003F018B8414680B2FCF77CBDC004000C61
:1057D000FCF778BDC08800EBC00080B2FCF7C9BC04
:1057E000C0880FF2F4218004000CFCF76BBD1F2071
:1057F000FCF7B3BC0020FDF737BA38B54FF6FF759C
:105800002846FCF7D3FCFFF7F2FF2846FCF79DFC87
:10581000FFF7F0FFFAF754FD0028FBD1062404201F
:1058200003F06BF84AF2A551884237D0FCF79DFC93
:1058300000F08AF8FCF799FC00F091F8FCF795FC71
:1058400000F0B4F8FCF791FCFFF748FFFCF78DFC83
:1058500000F0A4F8FCF789FCC0880FF22C416043EB
:10586000FFF7B1FFFCF781FCC0880FF25C31C0EBA1
:10587000C000FFF7A8FFFCF778FCC0880FF260318A
:10588000FFF7A4FFFAF71CFD0028FBD02846FCF721
:105890008DFCFAF75AFCBDE832400EE7FCF765FCD8
:1058A000FFF79EFFFCF761FC00F070F8FCF75DFC71
:1058B000C0880FF21C416043FFF785FFFCF755FCE1
:1058C00000F05CF8FCF751FCFFF71FFFFAF7F8FC5B
:1058D0000128FBD1FAF7F4FC0028FBD1FCF745FCCA
:1058E00000F02DF8FCF741FC00F033F8FCF73DFC2C
:1058F00000F020F8FCF739FCFFF76CFF02F09BFF8B
:105900000446A1B2182002F0ECFF210C1C2002F08A
:10591000E8FF01F0D6FAFCF728FC00F027F8FCF7C6
:1059200024FCC0880FF27831FFF750FFBDE831400A
:1059300002F060BFC088604380B2FCF71ABCC08828
:105940008004000CFCF715BCC0880FF2C421FCF7E2
:10595000B9BCC08800EB800080B2FCF70ABCC088EC
:105960000FF2C4214004000CFCF7ACBCC0880FF25D
:10597000A831C0EBC00080B2FCF7A4BCC0880FF215
:105980006831C0EBC00080B2FCF79CBCC0880FF24D
:10599000283100EB800080B2FCF794BCC0880FF285
:1059A000D02100EB800080B2FCF78CBCC0880FF2E5
:1059B000902100EB400080B2FCF784BC3C48012100
:1059C000016070472DE9F8433B483C4902683C4C74
:1059D0003C4D3D4E3D4FDFF8F880DFF8F8900A600F
:1059E00042684A6022688A606268CA602A680A61FE
:1059F0006A684A6132688A617268CA613A680A6292
:105A00007A684A62D8F800208A62D8F80420CA620C
:105A1000D9F800200A63D9F804204A634FF6FF71D1
:105A2000ADF8001000218DF8031000A9FCF7A5FFC8
:105A300000A92046FCF7A1FF00A92846FCF79DFF1E
:105A400000A93046FCF799FF00A93846FCF795FFFE
:105A500000A94046FCF791FF00A94846FCF78DFFDE
:105A6000BDE8F1831548144902680A6042684A603B
:105A7000134982680A60C2684A60124902690A6072
:105A800042694A60104982690A60C2694A600F49E6
:105A9000026A0A60426A4A600D49826A0A60C26A02
:105AA0004A600C49026B0A60406B48607047000016
:105AB000241800200420014000080140E0160020C6
:105AC000000C01400010014000140140001801408A
:105AD000001C0140002001405479706963616C2012
